:020000040801F1
:1000000080060020ED010108F5010108F701010853
:10001000F9010108FB010108FD01010800000000D1
:10002000000000000000000000000000FF010108C7
:100030000102010800000000030201080502010896
:100040000702010807020108070201080702010868
:100050000702010807020108070201080702010858
:100060000702010807020108070201080702010848
:100070000702010807020108070201080702010838
:100080000702010807020108070201080702010828
:100090000702010807020108070201080702010818
:1000A0000702010807020108070201080702010808
:1000B00007020108070201080702010807020108F8
:1000C00007020108070201080702010807020108E8
:1000D00007020108070201080702010807020108D8
:1000E00007020108070201080702010807020108C8
:1000F00007020108070201080702010807020108B8
:1001000007020108070201080702010807020108A7
:100110000702010807020108070201080702010897
:100120000702010807020108070201080702010887
:1001300000F002F800F03AF80AA090E8000C8244BF
:100140008344AAF10107DA4501D100F02FF8AFF29C
:10015000090EBAE80F0013F0010F18BFFB1A43F0A5
:1001600001031847740B0000940B0000103A24BFE1
:1001700078C878C1FAD8520724BF30C830C144BF0C
:1001800004680C607047000000230024002500264E
:10019000103A28BF78C1FBD8520728BF30C148BFEA
:1001A0000B6070471FB51FBD10B510BD00F041F8C2
:1001B0001146FFF7F7FF00F017FD00F05FF803B4FA
:1001C000FFF7F2FF03BC00F067F80000EFF30980CF
:1001D000704780F309887047EFF30880704780F319
:1001E0000888704740BA7047C0BA704709488047CE
:1001F00009480047FEE7FEE7FEE7FEE7FEE7FEE709
:10020000FEE7FEE7FEE7FEE704480549054A064B20
:1002100070470000DD08010831010108800000205E
:100220008006002080020020800200207047704776
:100230007047754600F02CF8AE46050069465346F7
:1002400020F00700854618B020B5FFF7DDFFBDE8B8
:1002500020404FF000064FF000074FF000084FF02D
:10026000000B21F00701AC46ACE8C009ACE8C009BE
:10027000ACE8C009ACE8C0098D46704710B504462B
:10028000AFF300802046BDE81040FFF798BF0000A4
:10029000004870472000002001491820ABBEFEE74F
:1002A0002600020070470029816802D041F0010158
:1002B00001E021F0010181607047000070B592B04B
:1002C0000220ADF8400000248DF8434010A93148C9
:1002D00000F08EF90121084600F032FA01214802AF
:1002E00000F03AFA2C4E304600F0F2F82B4800901D
:1002F0002B4801A9012581E831008020CDE9044087
:100300004000069080000790202008900002CDE970
:1003100009046946304600F04DF90121304600F0ED
:10032000CBF8E80300F002FA8DF830500B948DF80A
:1003300031504FF46020CDE90D04184C8DF83C503D
:100340004C3C0BA9204600F045F8052301220B2167
:10035000204600F063F80121204600F023F8012137
:100360002046FFF7A0FF204600F092F8204600F05C
:100370002AF80028FAD1204600F099F8204600F02B
:100380001BF80028FAD10121204600F086F812B0AF
:1003900070BD000000100140080002404C240140E4
:1003A000020000200029816802D041F4807101E040
:1003B00021F48071816070470146002089684907F7
:1003C00000D501207047014600208968090700D543
:1003D0000120704710B542680E4B0C791A400B682B
:1003E00042EA04221343436083680B4A1340D1E975
:1003F000024222434C7943EA44031A438260C26AB0
:10040000097C22F47002491EC9B242EA0151C1625C
:1004100010BD0000FFFEF0FFFDF7F1FF70B50724EF
:1004200009290AD9C568A1F10A0606EB4606B440B7
:10043000A543B3401D43C56007E0056901EB4106D4
:10044000B440A543B3401D4305611F23072A09D2C9
:10045000446B521E02EB820293409C4391400C433A
:10046000446370BD0D2A09D2046BD21F02EB8202D5
:1004700093409C4391400C43046370BDC46A0D3AA1
:1004800002EB820293409C4391400C43C46270BDD6
:10049000816841F00801816070470029816802D0BD
:1004A00041F4A00101E021F4A0018160704781685E
:1004B00041F00401816070470029016802D041F0D9
:1004C000010102E04FF6FE7211400160704700002A
:1004D00001684FF6FE721140016000210160416029
:1004E0008160C1603149314A0839904203D148687E
:1004F00040F00F0006E02D4A1432904204D14868C3
:1005000040F0F00048607047284A2832904203D1FA
:10051000486840F47060F5E7244A3C32904203D1C9
:10052000486840F47040EDE7204A5032904203D1D1
:10053000486840F47020E5E71C4A6432904203D1D9
:10054000486840F47000DDE7184A7832904203D1E1
:10055000486840F07060D5E7154A111F904203D1FA
:10056000086840F00F0006E0114A1432904204D1AE
:10057000086840F0F000086070470D4A2832904249
:1005800003D1086840F47060F5E7094A3C329042B4
:1005900003D1086840F47040EDE7054A50329042BC
:1005A000EAD1086840F47020E5E700000800024046
:1005B0000804024030B5036847F6F07293430C6AB2
:1005C0008A682243D1E904452C4322438C692243A3
:1005D000CC6922434C6A22438C6A22431A4302604C
:1005E000CA6842600A6882604968C16030BD000024
:1005F000F0B5CA78002502F00F03D20601D58A783B
:1006000013430A784FF00F0E12F0FF0F4FF0010264
:100610001CD004680F8802FA05F63740B74211D1A2
:100620004FEA850C0EFA0CF724EA070703FA0CF4DC
:100630003C43CF78282F02D0482F02D002E04661F9
:1006400000E006616D1C082DE4D304600C88FF2CCB
:100650001ED944685FF0000606F1080702FA07F5A4
:100660000F882F40AF420FD14FEA860C0EFA0CF7DD
:10067000BC4303FA0CF73C43CF78282F00D14561E7
:10068000CF78482F00D10561761C082EE4D3446052
:10069000F0BD0246002092680A4200D00120704757
:1006A000416170470161704708B50121102000F0D9
:1006B00053F848208DF803002020ADF8000069466B
:1006C0000148FFF795FF08BD00100140F8B5012172
:1006D000082000F041F810248DF8034003258DF820
:1006E000025020200F4EADF8000069463046FFF75B
:1006F0007FFF20213046FFF7D5FF0121202000F0A9
:100700002BF88DF803408DF802504820064CADF8C8
:10071000000069462046FFF76BFF48212046FFF79F
:10072000C1FFF8BD000C014000140140034A5168AC
:1007300021F4404101435160704700000010024025
:10074000044A0029516901D0014300E0814351610D
:100750007047000000100240044A0029916901D04E
:10076000014300E0814391617047000000100240A6
:1007700010B500F0B3F84FF40040FFF7D7FF0121A8
:100780000846FFF7E9FF01210846FFF7D9FF0121DD
:100790004802FFF7E1FF0121BDE810407C20FFF790
:1007A000DBBF000030B51F494A6812F00C031E4A37
:1007B00003D0042B01D0082B21D002604A680F23FC
:1007C0001A4C03EA1212A35C0268DA4042604B68DA
:1007D000072505EA1323E35C22FA03F383604B68E1
:1007E00005EAD323E35CDA40C2604968032303EAE5
:1007F0009131231F595CB2FBF1F1016130BD4A68B0
:100800004B6802F470124FF0020413F4803F04EBC3
:10081000924202D04B689B0301D5054B00E0024B8E
:100820005A43CAE70010024000127A00100000206C
:1008300000093D000CB50021264801910091026895
:1008400042F4803202604FF4A063026802F4003286
:100850000092019A521C0192009A12B9019A9A428E
:10086000F3D10268920333D5012100911A490A6835
:1008700042F010020A600A6822F003020A600A6865
:1008800042F002020A60416841604168416041688B
:1008900041F480614160416821F47C11416041680C
:1008A00041F4E8114160016841F080710160016824
:1008B0008901FCD5416821F003014160416841F0A4
:1008C000020141604168C1F381010229FAD10CBDE6
:1008D00000910CBD00100240002002400F4810B5EE
:1008E000016841F00101016041680D4A1140416019
:1008F00001680C4A11400160016821F48021016007
:10090000416821F4FE0141604FF41F018160FFF74F
:1009100091FF06490448086010BD00000010024025
:100920000000FFF8FFFFF6FE0020000808ED00E0E1
:100930000029818902D041F4005101E021F40051E5
:10094000818170470246002012880A4200D00120AF
:100950007047000030B50446008A85B00D464CF65D
:10096000FF710840E98801432182A1894EF6F31006
:100970000140A8882A8910436A890A431043A0814C
:10098000A08A4FF6FF410840A9890143A182684629
:10099000FFF708FF1948844201D1039800E002984C
:1009A000A189090400EBC00101EB0010296801D501
:1009B000490000E08900B0FBF1F06422B0FBF2F1E5
:1009C00009010B096FF018056B4300EB8300A38945
:1009D0001D044FF0320306D503EBC000B0FBF2F06C
:1009E00000F0070005E003EB0010B0FBF2F000F0B0
:1009F0000F000843208105B030BD000000380140E1
:100A00000FB47FB505460AAC0FE05C2914D002F1A3
:100A10000102252909921DD0284600F04BF84021FB
:100A20002846FFF78FFF0028F9D0099A117800298E
:100A3000EBD17FBC5DF814FB521C099210786E2834
:100A400003D072280BD10D2100E00A21284600F0C6
:100A500031F816E01078642817D0732802D0521CA1
:100A60000992DCE740CC09E0284600F023F8402159
:100A70002846FFF767FF0028F9D0761C3178002957
:100A8000F2D10998401C0990C9E701CC0A226946B5
:100A900000F07AF86E4609E0284600F00BF8402195
:100AA0002846FFF74FFF0028F9D0761C317800293F
:100AB000F2D1E6E7C1F308018180704770B50121EA
:100AC00086B08803FFF748FE4FF40054ADF80040AD
:100AD00003258DF8025010201D4E8DF80300694645
:100AE0003046FFF785FD21463046FFF7D9FD20113E
:100AF000ADF800008DF802501820164C8DF8030058
:100B000069462046FFF774FD2015ADF8000004206B
:100B10008DF8030069462046FFF76AFD4FF4165032
:100B200001900020ADF80800ADF80A00ADF80C0007
:100B3000ADF810000C20084CADF80E0001A92046BD
:100B4000FFF708FF01212046FFF7F2FE06B070BD57
:100B500000140140000801400038014010B5016850
:100B6000074A1140B1F1005F09D14168054CA1600D
:100B70000068FFF734FBA068BDE81040004710BDD7
:100B80000000FE2F00000020F0B500260B46354681
:100B90000A2A02D00D701846F0BD00281FD006DAD0
:100BA0004FF02D021A7001F10103C0F1000042F272
:100BB00010744FF00A0700BF90FBF4F252EA060CE3
:100BC00006D002F1300603F8016B02FB1400012687
:100BD00094FBF7F4002CEFDC1D700846F0BD3020CC
:100BE00018704B1CF8E70000FFF7C2FDFFF76EFD21
:100BF000FFF75AFDFFF762FFFFF760FB294C1BA1CF
:100C00002046FFF7FDFEA046274E0127DFF89CB0E7
:100C1000274CDFF8A09000254FF0006A6068411C67
:100C20006160B04205D365606770207880F0010094
:100C3000207020784FF020010028584602D0FFF79E
:100C40002FFD01E0FFF72EFD607828B16570628806
:100C500019A14046FFF7D4FE20214846FFF719FDB1
:100C60000028DBD15046FFF779FFD7E70D0A205562
:100C70005341525431207072696E742041445F7642
:100C8000616C7565202D2D2D2D2D2D2D2D2D2D2DAE
:100C90002D2D2D2D2D2D2D2D2D2D2D2D2D2D2D2091
:100CA0000D0A000000380140A0BB0D00000C0140FF
:100CB00000000020001001405468652063757272C6
:100CC000656E742041442076616C7565203D202559
:100CD00064200D0A00000000F80C0108000000204C
:100CE000200000006C010108180D01082000002000
:100CF00060060000880101080000000000000000FC
:100D000000000000020406080000000001020304C5
:080D10000102030406070809B3
:0400000508010131BC
:00000001FF
