:020000040800F2
:1020000028040020652100086D2100086F210008C8
:1020100071210008732100087521000800000000EC
:102020000000000000000000000000007721000810
:1020300079210008000000007B2100087D210008B4
:102040007F2100087F2100087F2100087F210008F0
:102050007F2100087F2100087F2100087F210008E0
:102060007F2100087F2100087F2100087F210008D0
:102070007F2100087F2100087F2100087F210008C0
:102080007F2100087F2100087F2100087F210008B0
:102090007F2100087F2100087F2100087F210008A0
:1020A0007F2100087F2100087F2100087F21000890
:1020B0007F2100087F2100087F2100087F21000880
:1020C0007F2100087F2100087F2100087F21000870
:1020D0007F2100087F2100087F2100087F21000860
:1020E0007F2100087F2100087F2100087F21000850
:1020F0007F2100087F2100087F2100087F21000840
:102100007F2100087F2100087F2100087F2100082F
:102110007F2100087F2100087F2100087F2100081F
:102120007F2100087F2100087F2100087F2100080F
:10213000DFF80CD000F028F800480047A92D00086F
:1021400028040020EFF30980704780F30988704766
:10215000EFF30880704780F30888704740BA7047F3
:10216000C0BA70470648804706480047FEE7FEE7CA
:10217000FEE7FEE7FEE7FEE7FEE7FEE7FEE7FEE737
:10218000D929000831210008064C074D06E0E06817
:1021900040F0010394E8070098471034AC42F6D3AE
:1021A000FFF7CAFFAC2E0008CC2E000821B18268D0
:1021B00042F00102826003E0826822F00102826044
:1021C0007047000000B591B00220ADF82C0000204F
:1021D0008DF82F000BA9394800F002FA01210846BA
:1021E00000F0E4FA0121480200F0F0FA344800F06F
:1021F00033F93448009034480190002002900120C7
:1022000003900020049080200590400006908000FC
:102210000790202008900002099000200A9069464B
:10222000274800F0BFF90121254800F008F94FF4D4
:10223000004000F0AFFA00200C9001208DF834002F
:102240008DF835004FF460200E9000200F90012093
:102250008DF840000CA91B484C3800F057F80523B6
:1022600001220B2117484C3800F078F8012115485D
:102270004C3800F02BF8012112484C38FFF796FF3C
:1022800010484C3800F0C6F800BF0E484C3800F03B
:1022900032F80028F9D10B484C3800F0CBF800BFD9
:1022A00008484C3800F01DF80028F9D101210548F4
:1022B0004C3800F0B4F811B000BD0000001001402F
:1022C000080002404C2401400600002021B1826831
:1022D00042F48072826003E0826822F4807282603D
:1022E0007047014600208A6802F004020AB101200A
:1022F00000E000207047014600208A6802F00802D2
:102300000AB1012000E000207047000030B502460D
:102310000020002350680F4C20400D790C6844EADF
:1023200005242043506090680B4C2040D1E90254B2
:102330002C434D7944EA450420439060D06A20F450
:1023400070000C7C641EE4B2234340EA0350D06268
:1023500030BD0000FFFEF0FFFDF7F1FFF0B50446D1
:102360000D4600200021092D11DDE068A5F10A06C7
:1023700006EB4607072606FA07F18843A5F10A0689
:1023800006EB460603FA06F10843E0600CE020691C
:1023900005EB4507072606FA07F1884305EB4506D6
:1023A00003FA06F108432061072A0FDA606B561E14
:1023B00006EB86071F2606FA07F18843561E06EB32
:1023C000860605FA06F10843606322E00D2A0FDA5B
:1023D000206BD61F06EB86071F2606FA07F18843F7
:1023E000D61F06EB860605FA06F10843206310E0C7
:1023F000E06AA2F10D0606EB86071F2606FA07F132
:102400008843A2F10D0606EB860605FA06F108439D
:10241000E062F0BD816841F008018160704721B140
:10242000826842F4A002826003E0826822F4A00283
:1024300082607047816841F004018160704721B17A
:10244000026842F00102026004E002684FF6FE7387
:102450001A4002607047000001684FF6FE7211409A
:1024600001600021016041608160C1604B49884288
:1024700008D14A490839496841F00F01474A083AEA
:1024800051608AE045491431884208D143490839EE
:10249000496841F0F001414A083A51607DE03F4906
:1024A0002831884208D13D490839496841F47061B2
:1024B0003A4A083A516070E038493C31884208D1C4
:1024C00036490839496841F47041344A083A516044
:1024D00063E032495031884208D1304908394968AF
:1024E00041F470212D4A083A516056E02B4964317D
:1024F000884208D129490839496841F47001274ABE
:10250000083A516049E025497831884208D1234989
:102510000839496841F07061204A083A51603CE04E
:102520001F49884206D1011F096841F00F01021FAF
:10253000116032E01A491431884208D11849091F44
:10254000096841F0F001164A121F116025E0144994
:102550002831884208D11249091F096841F4706185
:102560000F4A121F116018E00D493C31884208D112
:102570000B49091F096841F47041094A121F116093
:102580000BE007495031884207D10549091F096806
:1025900041F47021024A121F116070470800024086
:1025A0000804024010B50022026847F6F0739A430F
:1025B0000C6A8B6823430C6923434C6923438C6961
:1025C0002343CC6923434C6A23438C6A23431A4335
:1025D0000260CB6843600B6883604B68C36010BDCA
:1025E0002DE9F041024600250026002000230024AA
:1025F000002791F803C00CF00F0591F803C00CF010
:10260000100CBCF1000F03D091F802C04CEA050594
:1026100091F800C0BCF1000F31D0146800202BE00D
:102620004FF0010C0CFA00F3B1F800C00CEA0306FD
:102630009E4220D183004FF00F0C0CFA03F7BC43ED
:1026400005FA03FC4CEA040491F803C0BCF1280F1E
:1026500006D14FF0010C0CFA00FCC2F814C00AE0DD
:1026600091F803C0BCF1480F05D14FF0010C0CFAF2
:1026700000FCC2F810C0401C0828D1D31460B1F887
:1026800000C0BCF1FF0F34DD546800202EE000F1E3
:10269000080C4FF0010808FA0CF3B1F800C00CEA7E
:1026A00003069E4221D183004FF00F0C0CFA03F772
:1026B000BC4305FA03FC4CEA040491F803C0BCF1E6
:1026C000280F05D100F1080C08FA0CF8C2F81480A4
:1026D00091F803C0BCF1480F07D100F1080C4FF08E
:1026E000010808FA0CF8C2F81080401C0828CED364
:1026F0005460BDE8F0810246002093680B400BB1A6
:10270000012000E00020704741617047016170477F
:1027100008B50121102000F059F848208DF8030079
:102720002020ADF8000069460148FFF759FF08BDB9
:102730000010014008B50121082000F047F81020E2
:102740008DF8030003208DF802002020ADF8000072
:1027500069460E48FFF744FF20210C48FFF7D6FFDB
:102760000121202000F032F810208DF80300032012
:102770008DF802004820ADF8000069460448FFF7D4
:102780002FFF48210248FFF7C1FF08BD000C0140A0
:102790000014014001460020034A506820F44040E4
:1027A00008435060704700000010024029B1064AFB
:1027B00052690243044B5A6104E0034A526982435E
:1027C000014B5A61704700000010024029B1064ACF
:1027D00092690243044B9A6104E0034A926982437E
:1027E000014B9A61704700000010024010B500F0E4
:1027F000F3F84FF40040FFF7CDFF01210846FFF743
:10280000E5FF01210846FFF7D1FF01214802FFF74C
:10281000DDFF01217C20FFF7D9FF10BD30B500217D
:102820000022002400232D4D6D6805F00C0121B11C
:10283000042905D0082923D105E0294D056022E0AF
:10284000274D05601FE0254D6D6805F47012234D7E
:102850006D6805F48034022505EB92421CB9214DC8
:10286000554305600BE01D4D6D6805F400351DB145
:102870001C4D5543056002E0194D5543056002E0CB
:10288000174D056000BF00BF144D6D6805F0F001E5
:102890000909154D6B5C0568DD4045600F4D6D689D
:1028A00005F4E061090A104D6B5C4568DD40856008
:1028B0000A4D6D6805F46051C90A0B4D6B5C4568A3
:1028C000DD40C560054D6D6805F44041890B074D3D
:1028D0006B5CC568B5FBF3F5056130BD00100240C7
:1028E00000127A0000093D000D0000201D000020AC
:1028F00010B500F001F810BD0CB50020019000905B
:102900003348006840F480303149086000BF3048E7
:10291000006800F4003000900198401C019000987D
:1029200018B90198B0F5A06FF1D12948006800F4FA
:10293000003010B10120009001E0002000900098CC
:10294000012843D12348006840F010002149086065
:102950000846006820F0030008600846006840F060
:10296000020008601A4840681949486008464068F3
:1029700048600846406840F4806048600846406807
:1029800020F47C1048600846406840F4E810486035
:102990000846006840F08070086000BF0C4800687E
:1029A00000F000700028F9D00948406820F00300CA
:1029B000074948600846406840F00200486000BF90
:1029C0000348406800F00C000828F9D10CBD000055
:1029D000001002400020024010B51248006840F08C
:1029E000010010490860084640680F4908400D4939
:1029F0004860084600680D4908400A4908600846D2
:102A0000006820F4802008600846406820F4FE003A
:102A100048604FF41F008860FFF76AFF04480549CB
:102A2000086010BD001002400000FFF8FFFFF6FE36
:102A30000020000808ED00E021B1828942F4005234
:102A4000828104E082894DF6FF731A4082817047CB
:102A500002460020B1F5007F00D100BF13880B4073
:102A60000BB1012000E00020704700002DE9F04785
:102A700086B005460E460024A24600BFA1460027A8
:102A8000B08900B100BF2F462C8A4CF6FF7004407D
:102A9000F08804432C82AC894EF6F3100440B088D1
:102AA00031890843718908430443AC81AC8A4FF6ED
:102AB000FF400440B0890443AC8201A8FFF7AEFE9A
:102AC0001F48874202D1DDF810A001E0DDF80CA01C
:102AD000A88900F4004040B10AEBCA0000EB0A10DC
:102AE00031684900B0FBF1F807E00AEBCA0000EBDF
:102AF0000A1031688900B0FBF1F86420B8FBF0F0EF
:102B000004012009642101FB1089A88900F4004018
:102B100040B1322000EBC900B0FBF1F000F007003B
:102B2000044308E0322000EB09106421B0FBF1F00F
:102B300000F00F0004432C8106B0BDE8F0870000D0
:102B4000003801400FB470B586B006460CA801905D
:102B500073E00B9800785C281CD10B98401C0B90FC
:102B600000786E2809D072280FD10D21304600F070
:102B70006CF80B98401C0B900BE00A21304600F0DB
:102B800064F80B98401C0B9003E00B98401C0B90D2
:102B900000BF4BE00B980078252840D10B98401CD3
:102BA0000B900078642818D0732833D1019810C88E
:102BB00001900BE02178304600F047F800BF40213B
:102BC0003046FFF745FF0028F9D0641C2078002824
:102BD000F0D10B98401C0B9020E0019820C8019088
:102BE0000A2202A9284600F0ADF802AC0BE02178D9
:102BF000304600F02AF800BF40213046FFF728FF9A
:102C00000028F9D0641C20780028F0D10B98401CD3
:102C10000B9003E00B98401C0B9000BF06E00B9854
:102C200010F8011B0B90304600F00FF800BF402158
:102C30003046FFF70DFF0028F9D00B9800780028E8
:102C400087D106B070BC5DF814FBC1F30802828026
:102C50007047000000B585B001218803FFF7B6FD7D
:102C60004FF40050ADF8100003208DF81200102032
:102C70008DF8130004A91D48FFF7B2FC4FF4005172
:102C80001A48FFF741FD4FF40070ADF81000032023
:102C90008DF8120018208DF8130004A91448FFF7CE
:102CA0009FFC4FF48060ADF8100004208DF81300F5
:102CB00004A90F48FFF794FC4FF416500090002031
:102CC000ADF80400ADF80600ADF80800ADF80C0052
:102CD0000C20ADF80A0069460648FFF7C7FE01213F
:102CE0000448FFF7A9FE05B000BD00000014014034
:102CF000000801400038014002E008C8121F08C166
:102D0000002AFAD170477047002001E001C1121F6C
:102D1000002AFBD17047000010B50446206807491F
:102D20000840B0F1005F08D160680549086020687C
:102D3000FFF711FA02480068804710BD0000FE2F1F
:102D400008000020F0B503460D4616460027294628
:102D50000A2E03D0002008702846F0BD33B9302079
:102D600001F8010B002008702846F6E7002B03DA73
:102D70002D2001F8010B5B4242F210720DE093FB33
:102D8000F2F404B937B104F1300001F8010B04FB8F
:102D9000123301270A2092FBF0F2002AEFDC002018
:102DA00008702846D9E70000FFF720FDFFF7C2FCB6
:102DB000FFF7AEFCFFF74EFFFFF704FA1DA12B480B
:102DC000FFF7C0FE35E02A4801680068401C284A29
:102DD0001060284881420BD3002011460860012072
:102DE000254908702548007880F0010023490870C3
:102DF0002248007820B120212148FFF785FC03E01C
:102E000020211F48FFF782FC1B48007840B10020BA
:102E1000194908701B4802881BA11448FFF792FE4D
:102E200020212148FFF767FC18B94FF00060FFF739
:102E300073FFC8E70D0A2055534152543120707278
:102E4000696E742041445F76616C7565202D2D2D6F
:102E50002D2D2D2D2D2D2D2D2D2D2D2D2D2D2D2DA2
:102E60002D2D2D2D2D2D2D200D0A00000038014077
:102E700000000020A0BB0D00040000200C0000207A
:102E8000000C0140060000205468652063757272D2
:102E9000656E742041442076616C7565203D202567
:102EA00064200D0A0000000000100140CC2E000834
:102EB0000000002024000000F82C0008F02E00087C
:102EC0002400002004040000082D00080000000079
:102ED00000000000000000000000000000010203EC
:102EE00004010203040607080902040608000000A2
:04000005080021319D
:00000001FF
