:020000040800F2
:10000000D00A0020AD140008C5010008C70100088F
:10001000CB010008CF010008D30100080000000058
:10002000000000000000000000000000D7010008F0
:10003000D901000800000000DB010008DD01000814
:10004000C7140008C7140008C7140008C714000824
:10005000C7140008C7140008BB0F0008D70F00081A
:10006000C7140008F30F00080F100008C714000899
:100070003D0B0008C714000815060008C714000847
:10008000C7140008A7080008C7140008C714000810
:10009000C7140008C7140008C71400082B10000874
:1000A000C7140008C7140008C7140008C7140008C4
:1000B000C7140008C7140008C7140008C7140008B4
:1000C000C7140008C7140008C7140008C7140008A4
:1000D000C71400083F060008D1080008630B000899
:1000E000C7140008C7140008C7140008C714000884
:1000F000C7140008C7140008C7140008C714000874
:10010000C7140008C7140008C7140008C714000863
:10011000C7140008C7140008C7140008C714000853
:10012000C7140008C7140008C7140008C714000843
:10013000DFF80CD003F096F80048004745010008AE
:10014000D00A002001F048F900F03AF900F00CFE66
:1001500000F090FF01F052F801F0E6F84FF4A060D3
:1001600001F03AFF4FF4E13000F052F94FF4E13082
:1001700000F0DAFB05252E46304603F0C5F80446AC
:1001800000202070012060700220A0700D20E0701F
:100190000A2020710120084908600849C1F8880137
:1001A0002946204600F0F8F905E0054800780128C6
:1001B00001D100F0D5FFF8E7A001214200802242E2
:1001C00017000020704700BFFEE700BFFEE700BF3A
:1001D000FEE700BFFEE770477047704770470000BA
:1001E0000CB50020019000906C48006840F480300D
:1001F0006A49086000BF6948006800F40030009058
:100200000198401C0190009818B90198B0F5A06FB2
:10021000F1D16248006800F4003010B10120009074
:1002200001E0002000900098012843D15C4800685C
:1002300040F010005A4908600846006820F00300AA
:1002400008600846006840F00200086053484068B3
:10025000524948600846406848600846406840F493
:10026000806048600846406820F47C10486008467A
:10027000406840F4E81048600846006840F080702C
:10028000086000BF4548006800F000700028F9D001
:100290004248406820F003004049486008464068F2
:1002A00040F00200486000BF3C48406800F00C008D
:1002B0000828F9D10CBD10B5FFF792FF10BD10B59D
:1002C0003648006840F0010034490860084640683C
:1002D00034490840314948600846006832490840BE
:1002E0002E4908600846006820F48020086008460F
:1002F000406820F4FE0048604FF41F008860FFF75C
:10030000DAFF4FF000602949086010BD10B50021E8
:1003100000200022214B5B6803F00C0121B104296D
:1003200006D0082928D107E0214B224C236027E082
:100330001F4B204C236023E0184B5B6803F47010C4
:10034000164B5B6803F48032022303EB904022B922
:10035000194B4343174C23600DE0104B5B6803F4CB
:10036000003323B1144B4343124C236003E0104B82
:100370004343104C236003E00D4B0E4C236000BF41
:1003800000BF064B5B68C3F303130C4CE15C094BE5
:100390001B68CB40074C236010BD000000100240DA
:1003A000002002400000FFF8FFFFF6FE08ED00E02D
:1003B00000127A000000002000093D000400002027
:1003C00008B50121242001F09FFB4FF48070ADF8A7
:1003D000000010208DF8030003208DF8020069460C
:1003E000094801F0D5F84FF48071074801F07DF914
:1003F0000420ADF800006946044801F0C9F8042162
:10040000024801F072F908BD0008014000140140E3
:1004100010B592B004460121042001F075FB1820AC
:100420008DF8430003208DF842004FF40070ADF8C2
:10043000400010A9904801F0ABF804208DF843006B
:100440000002ADF8400010A98B4801F0A1F801218D
:10045000880301F059FB0C940020ADF83400ADF88E
:100460003600ADF83800ADF83C000C20ADF83A008D
:100470000CA9824801F0EFFB002240F226617F4880
:1004800001F081FC002240F225517C4801F07BFC08
:10049000002240F22771794801F075FC012240F2F8
:1004A0002441764801F06FFC25208DF8440001209E
:1004B0008DF845008DF846008DF8470011A801F031
:1004C00090FD012280216D4801F082FC0122402133
:1004D0006A4801F07DFC0121684801F048FC0121D7
:1004E000084601F004FB0E208DF8440001208DF831
:1004F00045008DF846008DF8470011A801F071FD08
:100500005F4801F0D7FD5D48001D01905D480290F5
:100510001020039040200490002005908020069039
:1005200000200790089009904FF400500A90002096
:100530000B9001A9524801F05FFE012202215048B0
:1005400001F091FE0121084601F0D1FA4C48143027
:1005500001F0B0FD4948001D01904B480290002079
:1005600003904020049000200590802006900020F9
:100570000790089009904FF440500A9000200B908B
:1005800001A93F48143001F037FE01213C481430E6
:1005900001F05DFE12B010BD70B504460D462A464E
:1005A0002146384802F04CFE0021354801F04FFE4C
:1005B0002946334801F060FE0121314801F047FE31
:1005C00070BD70B5054600242C4800882B48001DDE
:1005D000008800212A48143001F039FE4FF4003021
:1005E00001F064FE2648143001F048FEC0F14000DE
:1005F00084B222462449284602F022FE40212048A7
:10060000143001F039FE01211D48143001F01FFEA5
:10061000E0B270BD10B54FF4005001F052FE68B169
:100620004FF4005001F042FE0021154801F00FFE8A
:10063000012240F22661114801F0A5FB10BD10B562
:1006400040F226610D4801F083FC40B1002240F2E7
:1006500026610A4801F097FB00200C49087040F21F
:100660002441064801F074FC28B10948FFF7A9FFAE
:100670000749491E087010BD0008014000380140BC
:1006800044000240400000208000002014000020B0
:10069000C100002010B592B004460121042001F0F1
:1006A00033FA18208DF8430003208DF8420004200F
:1006B000ADF8400010A9954800F06AFF04208DF8BD
:1006C00043000820ADF8400010A9904800F060FFFA
:1006D0000121480401F025FA0C940020ADF8340003
:1006E000ADF83600ADF83800ADF83C000C20ADF8A0
:1006F0003A000CA9864801F0AEFA002240F22661C9
:10070000834801F040FB002240F22551804801F06F
:100710003AFB002240F227717D4801F034FB0122B0
:1007200040F224417A4801F02EFB26208DF8440047
:1007300001208DF845008DF846008DF8470011A87E
:1007400001F04FFC01228021714801F041FB0122A0
:1007500040216F4801F03CFB01216D4801F007FB8F
:100760000121084601F0C3F911208DF84400012051
:100770008DF845008DF846008DF8470011A801F06E
:1007800030FC644801F096FC6148001D019062480D
:1007900002901020039040200490002005908020BB
:1007A000069000200790089009904FF400500A909E
:1007B00000200B9001A9574801F01EFD01220221E3
:1007C000544801F050FD0121084601F090F95148CC
:1007D000143801F06FFC4E48001D01904F48029004
:1007E0000020039040200490002005908020069077
:1007F00000200790089009904FF440500A90002084
:100800000B9001A94348143801F0F6FC012141483E
:10081000143801F01CFD12B010BD70B504460D4631
:1008200000BF3F4800780028FBD101203C490870F8
:100830002A462146384802F003FD0021354801F0E0
:1008400006FD2946334801F017FD0121314801F02A
:10085000FEFC70BD70B5054600242D4800882C486C
:10086000001D008800212B48143801F0F0FC4FF4E3
:10087000001001F01BFD2748143801F0FFFCC0F107
:10088000400084B222462549284602F0D9FC402186
:100890002048143801F0F0FC01211E48143801F002
:1008A000D6FCE0B270BD10B54FF0007001F009FD4C
:1008B00068B14FF0007001F0F9FC0021154801F01B
:1008C000C6FC012240F22661114801F05CFA10BD1D
:1008D00010B540F226610E4801F03AFB40B100220B
:1008E00040F226610A4801F04EFA00200C490870D7
:1008F00040F22441064801F02BFB28B10948FFF7DC
:10090000A9FF0849491E087010BD000000080140F9
:100910000044004080000240C2010020020200208A
:10092000150000204302002010B592B004460121BA
:10093000082001F0E9F818208DF8430003208DF815
:1009400042004FF48060ADF8400010A99F4800F0CD
:100950001FFE04208DF843004002ADF8400010A9AE
:100960009A4800F015FE0121880401F0DAF80C9491
:100970000020ADF83400ADF83600ADF83800ADF821
:100980003C000C20ADF83A000CA9914801F063F945
:10099000002240F226618E4801F0F5F9002240F273
:1009A00025518B4801F0EFF9002240F22771884869
:1009B00001F0E9F9012240F22441854801F0E3F910
:1009C00027208DF8440001208DF845008DF8460061
:1009D0008DF8470011A801F004FB012280217C481A
:1009E00001F0F6F901224021794801F0F1F90121E5
:1009F000774801F0BCF90121084601F078F80C2095
:100A00008DF8440001208DF845008DF846008DF8E2
:100A1000470011A801F0E5FA6E4801F04BFB6C4865
:100A2000001D01906C48029010200390402004901B
:100A300000200590802006900020079008900990E3
:100A40004FF400500A9000200B9001A9614801F07A
:100A5000D3FB012202215F4801F005FC0121084679
:100A600001F045F85B48143001F024FB5848001DA4
:100A700001905A48029000200390402004900020EA
:100A800005908020069000200790089009904FF470
:100A900040500A9000200B9001A94E48143001F0FC
:100AA000ABFB01214B48143001F0D1FB12B010BD5B
:100AB00070B504460D4600BF494800780028FBD1B8
:100AC0000120474908702A462146434802F0B8FBF6
:100AD0000021404801F0BBFB29463E4801F0CCFB19
:100AE00001213C4801F0B3FB70BD70B50546002400
:100AF000374800883648001D0088002135481430EA
:100B000001F0A5FB4FF4007001F0D0FB3148143028
:100B100001F0B4FBC0F1400084B222462F492846C0
:100B200002F08EFB40212B48143001F0A5FB01217F
:100B30002848143001F08BFBE0B270BD10B52020C6
:100B400001F0BFFB60B1202001F0B0FB0021214883
:100B500001F07DFB012240F226611D4801F013F9EE
:100B600010BD10B540F22661194801F0F1F940B10D
:100B7000002240F22661164801F005F900201849CC
:100B8000087040F22441124801F0E2F9E0B1154842
:100B9000FFF7ABFF1349491E0870104800F03EFBF9
:100BA00090B10E4880791049C8700C48C07908711E
:100BB0000A48007A48710948C07A88710748407B22
:100BC000C87101200949087010BD0000000C0140E7
:100BD000004800401C000240440300208403002021
:100BE00016000020C5030020C604002017000020C6
:100BF00030B589B005460C460121042000F091FF74
:100C00000121092000F080FF4020ADF820001820CD
:100C10008DF8230003208DF8220008A9504800F029
:100C2000B7FCADF81850ADF814400020ADF81A002C
:100C3000ADF8160005A94B4801F03AFC7020ADF85C
:100C400004000120ADF806000020ADF80A00ADF860
:100C50000C0001A9434801F068FC0121414801F062
:100C60008FFF08213F4802F0AFF801213D4802F014
:100C70007BF801213B4801F077FF0121042000F0BF
:100C800050FF0121092000F03FFF8020ADF8200037
:100C900018208DF8230003208DF8220008A9304881
:100CA00000F076FCADF81850ADF814400020ADF817
:100CB0001A00ADF8160005A92A4801F0F9FB7020CA
:100CC000ADF804000120ADF806000020ADF80A00E0
:100CD000ADF80C0001A9234801F069FC012121486D
:100CE00001F04EFF08211F4802F077F801211D484E
:100CF00002F03AF801211B4801F036FF09B030BD7F
:100D000010B5002140F2CF20FFF772FF10BD70B583
:100D10000446012C0EDD642C0CDCC4F164004FF49D
:100D200034714843642190FBF1F085B229460D48A7
:100D300002F0B2F970BD70B50446012C0EDD642CD2
:100D40000CDCC4F164004FF434714843642190FB1F
:100D5000F1F085B22946034802F0A0F970BD000009
:100D6000000C0140000800401FB501213C2000F0AC
:100D7000CBFE0121084600F0C7FE0120ADF80C00B3
:100D800028208DF80F0003A9B84800F001FC0021CD
:100D9000084600F013FD0120009000208DF80400AB
:100DA00008208DF8050001208DF80600684602F045
:100DB000C7F906208DF8080001208DF809008DF88C
:100DC0000A008DF80B0002A801F00BF90220ADF823
:100DD0000C0028208DF80F0003A9A44800F0D8FBD0
:100DE0000121002000F0EAFC0220009000208DF894
:100DF000040008208DF8050001208DF806006846E3
:100E000002F09EF907208DF8080001208DF80900F6
:100E10008DF80A008DF80B0002A801F0E2F8082016
:100E2000ADF80C0028208DF80F0003A9904800F0C1
:100E3000AFFB0321022000F0C1FC0820009000203D
:100E40008DF8040008208DF8050001208DF80600BB
:100E5000684602F075F909208DF8080001208DF828
:100E600009008DF80A008DF80B0002A801F0B9F80E
:100E70001020ADF80C0028208DF80F0003A97C4845
:100E800000F086FB0421022000F098FC1020009066
:100E900000208DF8040008208DF8050001208DF851
:100EA0000600684602F04CF90A208DF8080001207F
:100EB0008DF809008DF80A008DF80B0002A801F0EA
:100EC00090F82020ADF80C0028208DF80F0003A921
:100ED000674800F05DFB0521022000F06FFC202038
:100EE000009000208DF8040008208DF805000120F6
:100EF0008DF80600684602F023F917208DF80800E7
:100F000001208DF809008DF80A008DF80B0002A869
:100F100001F067F84020ADF80C0028208DF80F0094
:100F200003A9534800F034FB0621022000F046FCE0
:100F30004020009000208DF8040008208DF8050066
:100F400001208DF80600684602F0FAF817208DF8A7
:100F5000080001208DF809008DF80A008DF80B00BB
:100F600002A801F03EF88020ADF80C0028208DF892
:100F70000F0003A93E4800F00BFB0721022000F000
:100F80001DFC8020009000208DF8040008208DF8C2
:100F9000050001208DF80600684602F0D1F8172000
:100FA0008DF8080001208DF809008DF80A008DF8F1
:100FB0000B0002A801F015F81FBD10B5022000F0CB
:100FC00048FA012002F022F908B102F05DF901208F
:100FD00002F02DF910BD10B5022000F03AFA0220FF
:100FE00002F014F920B102F067F9022002F01FF9B3
:100FF00010BD10B5022000F02CFA082002F006F90E
:1010000020B100F044F8082002F011F910BD10B52D
:10101000022000F01EFA102002F0F8F820B100F0D3
:101020004BF8102002F003F910BD10B5022000F0BB
:1010300010FA202002F0EAF820B100F052F8202047
:1010400002F0F5F8402002F0E1F820B100F05EF87F
:10105000402002F0ECF8802002F0D8F820B100F037
:101060006AF8802002F0E3F810BD0000000801409B
:10107000001001405A20474908700620487001209E
:101080008870FF20C870002008714871704710B543
:1010900003204049C87004213E4800F081F800F068
:1010A000A1F83C49087100F09AF83A4948710621C4
:1010B0003848FFF771FA10BD10B504203549C870E3
:1010C0000421344800F06CF800F08CF831490871C4
:1010D00000F085F82F49487106212E48FFF75CFA89
:1010E00010BD10B505202B49C8700421294800F017
:1010F00057F800F077F82749087100F070F8254993
:10110000487106212348FFF747FA10BD10B50620A5
:101110002049C87004211F4800F042F800F062F82E
:101120001C49087100F05BF81A49487106211948FA
:10113000FFF732FA10BD10B507201649C870042118
:10114000144800F02DF800F04DF81249087100F035
:1011500046F81049487106210E48FFF71DFA10BDE8
:1011600010B508210C4800F01BF800F03BF80A49C4
:10117000087200F034F8084948720A210648FFF75F
:101180000BFA0A210448FFF707FA00200349087008
:1011900010BD000018000020C60400201700002029
:1011A00010B50A46FF23114C2370114C237010E038
:1011B00010F8013B0E4C247883EA04010D4B5B5C74
:1011C0000A4C247863400A4C23700B4B5B5C074C41
:1011D0002370131EA2F10104E2B2E9D110BD03484D
:1011E0000078704702480078704700001E00002019
:1011F0001F00002074330008743400085A2010497E
:1012000008700A20487003208870FF20C870087199
:1012100048718871C8710872487270470146C87871
:1012200084280AD18878012807D14878102804D169
:101230000878FE2801D1012070470020FCE700005B
:10124000C604002008B50121082000F05DFC4FF421
:101250008050ADF8000010208DF8030003208DF8B9
:10126000020069462E4800F093F94FF40050ADF8A3
:10127000000010208DF8030003208DF8020069465D
:10128000274800F085F94FF48040ADF800001020A9
:101290008DF8030003208DF802006946204800F015
:1012A00077F94FF40040ADF8000010208DF80300EE
:1012B00003208DF802006946194800F069F908BD5D
:1012C00008B50121102000F01FFC4FF48060ADF83C
:1012D000000010208DF8030003208DF802006946FD
:1012E000104800F055F94FF40060ADF800001020F0
:1012F0008DF8030003208DF802006946094800F0CC
:1013000047F94FF48050ADF8000010208DF803002D
:1013100003208DF802006946024800F039F908BD43
:10132000000C01400010014010B5FFF78BFFFFF7E4
:10133000E7FC10BD10B50020254908602549C1F81B
:10134000B4010520FFF7E3FC10BD10B504460120F1
:101350001F49086000201F49C1F8B4012046FFF76B
:10136000D6FC10BD10B504460020194908600120C4
:101370001849C1F8B4012046FFF7C9FC10BD10B5EB
:1013800000201349083108601249C1F8BC0105204A
:10139000FFF7D1FC10BD10B5044601200C490831FF
:1013A000086000200B49C1F8BC012046FFF7C3FCD0
:1013B00010BD10B504460020054908310860012021
:1013C0000449C1F8BC012046FFF7B5FC10BD000080
:1013D000B08121420080214210B56FF0040000F07E
:1013E0004AFE2E4800682E49B0FBF1F02D490870E6
:1013F0000846007800EB4001C1EBC0104FF6FF71CA
:1014000001EAC0002849088010BD0146254A12782B
:101410004A434FF0E0235A6100229A611A4612694A
:1014200042F001021A6100BF4FF0E022106900F0A3
:1014300001021AB100F48032002AF5D04FF0E02208
:10144000126922F001024FF0E0231A6100229A6132
:1014500070470146144A12884A434FF0E0235A610C
:1014600000229A611A46126942F001021A6100BF15
:101470004FF0E022106900F001021AB100F480324E
:10148000002AF5D04FF0E022126922F001024FF05D
:10149000E0231A6100229A617047000000000020DA
:1014A00000127A0020000020220000200648804719
:1014B00006480047FEE7FEE7FEE7FEE7FEE7FEE739
:1014C000FEE7FEE7FEE7FEE7BF0200083101000885
:1014D00010B50446CC48844208D10121042000F014
:1014E0002DFB0021042000F029FB46E0C748844280
:1014F00008D10121082000F021FB0021082000F084
:101500001DFB3AE0C248844208D10121102000F0BE
:1015100015FB0021102000F011FB2EE0BD48844295
:1015200008D10121202000F009FB0021202000F03B
:1015300005FB22E0B848844208D10121402000F098
:10154000FDFA0021402000F0F9FA16E0B348844289
:1015500008D10121802000F0F1FA0021802000F064
:10156000EDFA0AE0AE48844207D10121801500F06F
:10157000E5FA0021A01500F0E1FA10BD10B5012137
:10158000084600F0DBFA0021012000F0D7FA10BD78
:101590002DE9F0410246002500260020002300240A
:1015A000002791F803C00CF00F0591F803C00CF070
:1015B000100CBCF1000F03D091F802C04CEA0505F5
:1015C00091F800C0BCF1000F31D0146800202BE06E
:1015D0004FF0010C0CFA00F3B1F800C00CEA03065E
:1015E0009E4220D183004FF00F0C0CFA03F7BC434E
:1015F00005FA03FC4CEA040491F803C0BCF1280F7F
:1016000006D14FF0010C0CFA00FCC2F814C00AE03D
:1016100091F803C0BCF1480F05D14FF0010C0CFA52
:1016200000FCC2F810C0401C0828D1D31460B1F8E7
:1016300000C0BCF1FF0F34DD546800202EE000F143
:10164000080C4FF0010808FA0CF3B1F800C00CEADE
:1016500003069E4221D183004FF00F0C0CFA03F7D2
:10166000BC4305FA03FC4CEA040491F803C0BCF146
:10167000280F05D100F1080C08FA0CF8C2F8148004
:1016800091F803C0BCF1480F07D100F1080C4FF0EE
:10169000010808FA0CF8C2F81080401C0828CED3C4
:1016A0005460BDE8F0814FF6FF7101800221817026
:1016B0000421C17070470246002093680B400BB1B3
:1016C000012000E0002070470146886880B2704722
:1016D00002460020D3680B400BB1012000E000203F
:1016E00070470146C86880B2704701617047416128
:1016F00070470AB1016100E041617047C160704705
:101700004FF480320A438261816182618269826919
:10171000704702460020434B18684FF6807318400C
:1017200040EA021008433F4B186070473E49C861C9
:101730007047F0B50A46002300240021002500F080
:101740000046B6F1004F02D1364EF16901E0354E48
:101750007168C0F3034583B200F44016B6F5401F2C
:1017600008D121F070612F4E766826F070662D4FFB
:101770007E6012E000F48016B6F5801F06D10326C5
:1017800006FA05F4A14341F0706106E0460D36010A
:1017900003FA06F6B14341F0706122B1460D3601FD
:1017A00003FA06F6314300F00046B6F1004F02D1CD
:1017B0001C4EF16101E01B4E7160F0BD30B500229E
:1017C0008B071C0F0F2303FA04F2164B08338C10FF
:1017D00053F824309343134C08348D1044F82530CB
:1017E00023468C1053F824308C07240F00FA04F49D
:1017F00023430C4C08348D1044F8253030BD0A4981
:10180000DC3108607047000000080140000C014016
:10181000001001400014014000180140001C01406C
:10182000002001400000014000002042DF48006825
:1018300040F00100DD49086008464068DC49084086
:10184000DA49486008460068DA490840D749086024
:101850000846006820F4802008600846406820F4AC
:10186000FE0048604FF41F0088607047CF49096848
:1018700021F48031CD4A11601146096821F480219C
:101880001160B0F5803F03D0B0F5802F0ED106E097
:10189000C649096841F48031C44A116007E0C34970
:1018A000096841F4A021C14A116000E000BF00BFF7
:1018B000704710B501460022002300204A11012A7A
:1018C00002D1BA4C236806E0022A02D1B74C236A3F
:1018D00001E0B64C636A01F01F02012494401C40F1
:1018E0000CB1012000E0002010BD38B500200090B0
:1018F0000024002500BF3120FFF7DBFF05460098DC
:10190000401C00900098B0F5A06F01D0002DF2D0DF
:101910003120FFF7CEFF08B1012400E0002420466B
:1019200038BD01460020A14A106820F0F80040EAC6
:10193000C10010607047A04908607047024600204F
:101940009A4B586820F47C1042EA01031843974BE5
:101950005860704798490866704701460020934ACE
:10196000506820F003000843506070478F4840687B
:1019700000F00C007047014600208C4A506820F0AF
:10198000F00008435060704701460020874A5068C5
:1019900020F4E06008435060704701460020834A0D
:1019A000506820F4605040EAC1005060704729B18F
:1019B0007E4A527A02437D4B5A7204E07B4A527A45
:1019C00082437A4B5A7270477B49D831086070471E
:1019D00001460020754A506820F44040084350609A
:1019E00070470021714A20321170704A82F820102D
:1019F000012802D004280AD104E001216B4A2032D8
:101A0000117005E00521694A2032117000E000BF25
:101A100000BF70476949086070476449096A01431B
:101A2000624A11627047654944390860704730B5B1
:101A300000210022002400235C4D6D6805F00C019C
:101A400021B1042905D0082923D105E05C4D0560AA
:101A500022E05B4D05601FE0544D6D6805F4701287
:101A6000524D6D6805F48034022505EB92421CB995
:101A7000544D554305600BE04C4D6D6805F4003541
:101A80001DB1504D5543056002E04D4D5543056075
:101A900002E04B4D056000BF00BF444D6D6805F08E
:101AA000F0010909484D6B5C0568DD4045603F4D1C
:101AB0006D6805F4E061090A434D6B5C4568DD40E3
:101AC00085603A4D6D6805F46051C90A3E4D6B5C06
:101AD0004568DD40C560354D6D6805F44041890BB2
:101AE0003A4D6B5CC568B5FBF3F5056130BD29B1B6
:101AF0002E4A526902432D4B5A6104E02B4A526927
:101B000082432A4B5A61704729B1284A926902439D
:101B1000264B9A6104E0254A92698243234B9A61DD
:101B2000704729B1214AD2690243204BDA6104E0AF
:101B30001E4AD26982431D4BDA61704729B11B4AA4
:101B4000D2680243194BDA6004E0184AD268824333
:101B5000164BDA60704729B1144A12690243134BDD
:101B60001A6104E0114A12698243104B1A617047EE
:101B700012494039086070470F49C86470470B49E3
:101B8000C87170470948406A40F080700749486250
:101B9000704701460020054A92680A400AB10120B8
:101BA00000E0002070470149887270470010024031
:101BB0000000FFF8FFFFF6FE0000424280044242B0
:101BC00000127A0000093D002400002034000020AB
:101BD00010B50446FB48844209D101218803FFF770
:101BE000ADFF00214FF48040FFF7A8FF32E0F64838
:101BF000844209D101214804FFF7ADFF00214FF4D1
:101C00000030FFF7A8FF25E0F048844209D1012108
:101C10008804FFF7A0FF00214FF48020FFF79BFF0F
:101C200018E0EB48844209D10121C804FFF793FF73
:101C300000214FF40020FFF78EFF0BE0E5488442BF
:101C400008D101210805FFF786FF00214FF480101D
:101C5000FFF781FF10BD2DE9F04786B005460E461F
:101C60000024A24600BFA1460027B08900B100BFF2
:101C70002F462C8A4CF6FF700440F08804432C82D7
:101C8000AC894EF6F3100440B0883189084371895D
:101C900008430443AC81AC8A4FF6FF400440B0894E
:101CA0000443AC8201A8FFF7C2FEC648874202D1B6
:101CB000DDF810A001E0DDF80CA0A88900F40040D8
:101CC00040B10AEBCA0000EB0A1031684900B0FBD2
:101CD000F1F807E00AEBCA0000EB0A10316889004E
:101CE000B0FBF1F86420B8FBF0F004012009642196
:101CF00001FB1089A88900F4004040B1322000EBBC
:101D0000C900B0FBF1F000F00700044308E0322006
:101D100000EB09106421B0FBF1F000F00F00044368
:101D20002C8106B0BDE8F0874FF416510160002108
:101D30008180C18001810C21418100218181704716
:101D400010B502460020108A4FF2FF0318400B889E
:101D50004C8823438C882343CC8823431843108228
:101D600010BD0021018041808180C180704721B178
:101D7000828942F40052828104E082894DF6FF7329
:101D80001A4082817047F0B50346002400260025E2
:101D9000002040F66A17B94200D100BF1846C1F3CF
:101DA000421401F01F06012707FA06F5012C01D1A4
:101DB0000C3004E0022C01D1103000E014301AB1D4
:101DC00007682F43076002E00768AF430760F0BD74
:101DD0001AB1838A0B43838202E0838A8B43838216
:101DE0007047028A4FF6F0731A400282028A0A4351
:101DF0000282704782894FF2FF731A408281828982
:101E00000A438281704721B1828942F002028281B5
:101E100004E082894FF6FD731A4082817047028A7E
:101E20004FF6DF731A400282028A0A430282704729
:101E300021B1028A42F48042028204E0028A4BF617
:101E4000FF731A4002827047C1F308028280704714
:101E500001468888C0F308007047818941F001017C
:101E600081817047028BD2B20283028B42EA012247
:101E700002837047028B02F47F420283028B0A4383
:101E80000283704721B1828A42F02002828204E0FC
:101E9000828A4FF6DF731A408282704721B1828AAC
:101EA00042F01002828204E0828A4FF6EF731A40F9
:101EB0008282704721B1828A42F00802828204E065
:101EC000828A4FF6F7731A408282704721B1828965
:101ED00042F40042828103E08289C2F30E028281D1
:101EE000704721B1828A42F40062828204E0828AD1
:101EF0004FF2FF731A4082827047828A4FF6FB735B
:101F00001A408282828A0A438282704721B1828A81
:101F100042F00202828204E0828A4FF6FD731A4088
:101F20008282704702460020B1F5007F00D100BFD9
:101F300013880B400BB1012000E00020704701F432
:101F40000072B2F5007F00D100BFCA430280704723
:101F500070B50246002400230025002040F66A16D2
:101F6000B14200D100BFC1F3421501F01F030126A9
:101F700006FA03F3012D02D19689334006E0022DC3
:101F800002D1168A334001E0968A33400C120126B2
:101F900006FA04F41688344013B10CB1012000E0B5
:101FA000002070BD10B50022002340F66A14A14243
:101FB00000D100BF0A1201249440A3B2DC43048084
:101FC00010BD0000003801400044004000480040BF
:101FD000004C00400050004031490143314A11603B
:101FE000704770B5002100230F22C47804B32D4C34
:101FF000246804F4E064C4F5E064210AC1F1040338
:10200000CA40447804FA03F184781440214309015A
:10201000254C0678A155047804F01F050124AC4036
:1020200005786D11AD0005F1E025C5F8004109E026
:10203000047804F01F050124AC401C4D067876118D
:1020400045F8264070BD1A4A0A400243154B1B1F33
:102050001A60704739B1134A121D12680243114BBE
:102060001B1D1A6006E00F4A121D126882430D4BB9
:102070001B1D1A607047042808D14FF0E021096940
:1020800041F004014FF0E022116107E04FF0E02140
:10209000096921F004014FF0E0221161704700004E
:1020A0000000FA050CED00E000E400E080E100E053
:1020B00080FFFF1F01684FF6FE7211400160002192
:1020C000016041608160C1608D49884208D18C49BE
:1020D0000839496841F00F01894A083A51608AE09D
:1020E00087491431884208D185490839496841F047
:1020F000F001834A083A51607DE0814928318842E5
:1021000008D17F490839496841F470617C4A083A2E
:10211000516070E07A493C31884208D178490839E9
:10212000496841F47041764A083A516063E0744965
:102130005031884208D172490839496841F4702108
:102140006F4A083A516056E06D496431884208D1BF
:102150006B490839496841F47001694A083A51608D
:1021600049E067497831884208D1654908394968AA
:1021700041F07061624A083A51603CE0614988422E
:1021800006D1011F096841F00F01021F116032E002
:102190005C491431884208D15A49091F096841F045
:1021A000F001584A121F116025E056492831884233
:1021B00008D15449091F096841F47061514A121F3E
:1021C000116018E04F493C31884208D14D49091F40
:1021D000096841F470414B4A121F11600BE04949F4
:1021E0005031884207D14749091F096841F47021DD
:1021F000444A121F1160704710B50022026847F66A
:10220000F0739A430C6A8B6823430C6923434C692F
:1022100023438C692343CC6923434C6A23438C6A50
:1022200023431A430260CB6843600B6883604B68AA
:10223000C36010BD0021016041608160C160016127
:1022400041618161C161016241628162704721B176
:10225000026842F00102026004E002684FF6FE7379
:102260001A40026070471AB103680B43036002E032
:1022700003688B43036070474160704701464868BC
:1022800080B2704701460020002201F080531BB14C
:102290001C4B083B1A6802E0194B083B1A6802EA1B
:1022A00001030BB1012000E00020704700F08051D5
:1022B00019B11449091F086002E011490839486042
:1022C000704701460020002201F080531BB10D4BE6
:1022D000083B1A6802E00A4B083B1A6802EA01034D
:1022E0000BB1012000E00020704700F0805119B1CF
:1022F0000449091F086002E0014908394860704735
:10230000080002400804024010B50446FE4884421A
:1023100008D10121C014FFF711FC0021E014FFF7E0
:102320000DFCC4E0B4F1804F08D101210846FFF74D
:1023300012FC00210120FFF70EFCB8E0F3488442B4
:1023400008D101210220FFF706FC00210220FFF73F
:1023500002FCACE0EE48844208D101210420FFF7E2
:10236000FAFB00210420FFF7F6FBA0E0E9488442D5
:1023700008D101210820FFF7EEFB00210820FFF71C
:10238000EAFB94E0E448844208D101211020FFF7E1
:10239000E2FB00211020FFF7DEFB88E0DF488442EB
:1023A00008D101212020FFF7D6FB00212020FFF7D4
:1023B000D2FB7CE0DA48844208D101214014FFF7C7
:1023C000BDFB00216014FFF7B9FB70E0D5488442E3
:1023D00009D10121C804FFF7B1FB00214FF400200F
:1023E000FFF7ACFB63E0D048844209D10121080526
:1023F000FFF7A4FB00214FF48010FFF79FFB56E08E
:10240000CA48844209D101214805FFF797FB002102
:102410004FF40010FFF792FB49E0C548844208D111
:1024200001214020FFF797FB00214020FFF793FB9D
:102430003DE0C048844208D101218020FFF78BFB9A
:1024400000218020FFF787FB31E0BB48844208D1A0
:1024500001218015FFF77FFB0021A015FFF77BFB13
:1024600025E0B648844209D101210804FFF766FB44
:1024700000214FF48030FFF761FB18E0B048844240
:1024800009D101214804FFF759FB00214FF4003026
:10249000FFF754FB0BE0AB48844208D101218804CC
:1024A000FFF74CFB00214FF48020FFF747FB10BDE6
:1024B00000220288944B98420ED0994B98420BD040
:1024C000B0F1804F08D0914B984205D0904B984284
:1024D00002D0904B984204D14FF68F731A404B882C
:1024E0001A438D4B984207D08C4B984204D04FF63C
:1024F000FF431A40CB881A4302808B8883850B8860
:102500000385814B98420BD0854B984208D08B4B6A
:10251000984205D08A4B984202D08A4B984201D10A
:102520000B7A038601238382704770B50024002252
:102530000023058C4FF6FE7635400584028C838897
:10254000048B4FF68F752C40B51E2C400D882C4304
:10255000751E2A400D892A434D882A436A4DA84298
:102560000BD06F4DA84208D0744DA84205D0744DD1
:10257000A84202D0734DA84213D14FF6F7752A40F6
:102580004D892A434FF6FB752A408D882A434FF622
:10259000FF652B404FF6FF552B408D892B43CD898E
:1025A0002B4383800483CD888586028470BD70B5FB
:1025B000002400220023058C4FF6EF763540058479
:1025C000028C8388048B48F6FF752C404FF6FF453C
:1025D0002C400D884FF6FF7606EA05252C434FF672
:1025E000DF752A400D8906EA05152A434D8806EA5B
:1025F00005152A43444DA84202D0494DA8421DD199
:102600004FF67F752A404D894FF6FF7606EA05158D
:102610002A434FF6BF752A408D8806EA05152A43DE
:102620004FF6FF352B404FF2FF752B408D8906EAA0
:1026300085052B43CD8906EA85052B4383800483DA
:10264000CD880587028470BD70B500240022002368
:10265000058C4FF6FF6635400584028C8388848B99
:102660004FF68F752C404FF6FC752C400D882C438F
:102670004FF6FF552A400D894FF6FF7606EA0525ED
:102680002A434D8806EA05252A431F4DA84202D059
:10269000234DA8421DD14FF2FF752A404D894FF6B8
:1026A000FF7606EA05252A434FF6FF352A408D8836
:1026B00006EA05252A434EF6FF752B404DF6FF75B9
:1026C0002B408D8906EA05152B43CD8906EA0515B1
:1026D0002B4383808483CD888587028470BD70B549
:1026E000002200230024058C4EF6FF763540058439
:1026F000038C8488828B48F6FF752A404FF6FF458D
:102700002A400D8820E00000002C01400004004019
:1027100000080040000C0040001000400014004081
:1027200000340140004C0140005001400054014081
:1027300000180040001C0040002000400040014004
:1027400000440140004801404FF6FF7606EA0525A7
:102750002A434DF6FF752B400D8906EA05352B43BC
:102760004D8806EA05352B43FA4DA84202D0FA4DB2
:10277000A84208D14BF6FF752C408D894FF6FF76A5
:1027800006EA85152C4384808283CD88A0F84050CA
:10279000038470BD828B4FF2FF331A408283828B99
:1027A0004FF6FF7303EA01231A4382837047F0B5A3
:1027B0000C461546002200210026078C4EF6FF7CB1
:1027C00007EA0C070784828B018C4FF6FF7707EA34
:1027D000043640F6FF473A404FF6FF7707EA0527F1
:1027E0003A434FF6FF7707EA03373A43D94FB842E7
:1027F0000ED0D94FB8420BD0B0F1804F08D0D74F90
:10280000B84205D0D64FB84202D0D64FB84206D112
:102810004DF6FF77394046F48057394305E047F6D7
:10282000FF57394044F48057394382830184F0BD17
:10283000828B4FF6F3731A408283828B0A43828322
:102840007047F0B50C461546002200210026078C83
:102850004FF6FF6C07EA0C070784828B018C4FF65A
:10286000FF7707EA04264FF60C773A404FF6FF77DA
:1028700007EA03172F433A43B64FB8420ED0B64F7C
:10288000B8420BD0B0F1804F08D0B44FB84205D059
:10289000B34FB84202D0B34FB84206D14FF6FF57FC
:1028A000394046F48077394305E04FF2FF5739400D
:1028B00044F48077394382830184F0BD028B4FF268
:1028C000FF331A400283028B4FF6FF7303EA0123A2
:1028D0001A4302837047F0B50C46154600220021CA
:1028E0000026078C4FF6EF7C07EA0C070784028B63
:1028F000018C4FF6FF7707EA041640F6FF473A408F
:102900004FF6FF7707EA03373A434FF6FF7707EAB8
:1029100005273A438F4FB8420ED08F4FB8420BD0A5
:10292000B0F1804F08D08D4FB84205D08C4FB842DF
:1029300002D08C4FB84206D14FF6DF77394046F0CF
:102940001007394305E04FF65F77394044F0100730
:10295000394302830184F0BD028B4FF6F3731A40B2
:102960000283028B0A4302837047F0B50C4615467A
:1029700000220021068C4FF6FE773E400684028B33
:10298000018C4FF60C7632407E1C06EA03162E436D
:102990003243704EB0420ED06F4EB0420BD0B0F109
:1029A000804F08D06D4EB04205D06D4EB04202D07F
:1029B0006C4EB04206D14FF6FD76314044F0010630
:1029C000314305E04FF6F576314044F001063143DE
:1029D00002830184F0BD70B505460C465D48854212
:1029E0000ED05D4885420BD0B5F1804F08D05B48D2
:1029F000854205D05A48854202D05A48854200D1C6
:102A000000E000BF208850B92389A2886188284649
:102A1000FFF7ABFFE1882846FFF79EFF25E02088FF
:102A200004280AD12389A28861882846FFF753FF2A
:102A3000E1882846FFF742FF17E0208808280AD1DE
:102A40002389A28861882846FFF7FBFEE188284693
:102A5000FFF7EEFE09E02389A28861882846FFF788
:102A6000A6FEE1882846FFF795FE70BD2DE9F041EE
:102A700005460C4600260127608808B9022600E0BA
:102A80000026A088012801D1022700E00127208824
:102A9000A0B92389A28861882846FFF766FFE188EC
:102AA0002846FFF759FF23893A4631462846FFF763
:102AB00012FFE1882846FFF701FF13E02389A2886F
:102AC00061882846FFF707FFE1882846FFF7F6FEF2
:102AD00023893A4631462846FFF747FFE1882846D2
:102AE000FFF73AFFBDE8F0810A884B881A438B88CC
:102AF0001A43CB881A430B891A434B891A438B8993
:102B00001A43A0F8442070474FF6FF7181800021DE
:102B10000180C180418001727047002101804180A5
:102B20008180C180018141818181C1817047002103
:102B300001804180012181800021C1800181704795
:102B40000021018041808180C1800181418181819A
:102B500070470000002C0140003401400004004098
:102B600000080040000C004021B1028842F0010240
:102B7000028004E002884FF6FE731A40028070471C
:102B800031B1B0F8442042F40042A0F8442005E0FE
:102B9000B0F84420C2F30E02A0F8442070471AB1E6
:102BA00083890B43838102E083898B438381704750
:102BB0008182704741EA0203A0F8483070471AB199
:102BC00083890B43838102E083898B438381704730
:102BD00001894FF6F8721140018170470A460021C1
:102BE00001894FF68F73194011430181704730B549
:102BF00004460D4629462046FFF7F0FF208940F0A5
:102C00000700208130BD2DE9F04104460D461646EF
:102C10001F46602D06D13B46012231462046FFF774
:102C20005AFE05E03B46012231462046FFF79DFE55
:102C300029462046FFF7D2FF208940F00700208177
:102C4000BDE8F08130B50C4600210189C9B24FF6CC
:102C5000FF7505EA0325154325432943018130BD4E
:102C60002DE9F04105460E46174698460024434696
:102C70003A4631462846FFF7E5FF2C894FF6F870B3
:102C8000044044F007044FF68F70044044F0700491
:102C90002C81BDE8F081F0B504460D4616461F466E
:102CA0003B46324629462046FFF7CCFF208940F4B8
:102CB00080402081F0BD0185828270470A46002154
:102CC00001884FF68F731940114301807047F0B5AA
:102CD0000C4615461E460021002200230189028B66
:102CE000038C4FF6F877394021434FF6FC473A40C2
:102CF00040F201173A434FF6DD773B404FF6FF773E
:102D000007EA06172F433B43018102830384F0BD8A
:102D10000A460021018B4FF68F731940114301833E
:102D200070470A460021018B48F6FF7319404FF6A1
:102D3000FF7303EA02231943018370470A46002107
:102D4000818B4FF68F7319401143818370470A4678
:102D50000021818B48F6FF7319404FF6FF7303EA99
:102D6000022319438183704721B1028842F0800217
:102D7000028004E002884FF67F731A400280704799
:102D800021B1828842F00402828004E082884FF6FA
:102D9000FB731A408280704721B1828842F008029A
:102DA000828004E082884FF6F7731A408280704771
:102DB00021B1828842F00102828004E082884FF6CD
:102DC000FE731A40828070470A460021018B4FF63D
:102DD000F77319401143018370470A460021018BA4
:102DE0004FF2FF7319404FF6FF7303EA02231943B2
:102DF000018370470A460021818B4FF6F773194013
:102E00001143818370470A460021818B4FF2FF7383
:102E100019404FF6FF7303EA022319438183704779
:102E20000A460021018B4FF6FB73194011430183C1
:102E300070470A460021018B4FF6FF3319404FF6C9
:102E4000FF7303EA02231943018370470A460021F6
:102E5000818B4FF6FB7319401143818370470A46FB
:102E60000021818B4FF6FF3319404FF6FF7303EAC1
:102E700002231943818370470A460021018B4FF6D4
:102E80007F7319401143018370470A460021018B6B
:102E9000C1F30E014FF6FF7303EA022319430183C6
:102EA00070470A460021818B4FF67F73194011430A
:102EB000818370470A460021818BC1F30E014FF6D2
:102EC000FF7303EA02231943818370470A460021F6
:102ED000018C4FF6FD7319401143018470470A4677
:102EE0000021018C4FF6F77319401143018470479C
:102EF0000A460021018C4FF6DF7319404FF6FF732D
:102F000003EA02131943018470470A460021018C29
:102F10004FF67F7319404FF6FF7303EA021319430C
:102F2000018470470A460021018C4FF6FF53194077
:102F30004FF6FF7303EA02231943018470470A46E0
:102F40000021018C4FF2FF7319404FF6FF7303EA23
:102F500002231943018470470A460021018C4DF673
:102F6000FF7319404FF6FF7303EA023319430184DC
:102F7000704730B5002301248C40A3B2048C9C43DD
:102F80000484048C02FA01F5ADB22C43048430BDF4
:102F900030B5002304248C40A3B2048C9C430484E9
:102FA000048C02FA01F5ADB22C43048430BD70B537
:102FB0000346002000241846183001258D40ACB28D
:102FC0001D8CA5431D8409B1082909D100EB6100BE
:102FD000056825F0700505600568154305600EE07D
:102FE0000D1FC5F34E052844056825F4E04505602E
:102FF00005684FF6FF7606EA02263543056070BD88
:1030000021B1028842F00202028004E002884FF6F9
:10301000FD731A400280704721B1028842F0040219
:10302000028004E002884FF6FB731A40028070476A
:1030300021B1828842F08002828004E082884FF6CB
:103040007F731A408280704702884FF6F7731A40E8
:10305000028002880A430280704782884FF68F738D
:103060001A40828082880A438280704702894FF624
:10307000F8731A40028102890A430281704702896B
:103080004FF67F731A40028102890A43028170471A
:1030900081847047818570478186704701877047BA
:1030A00081877047A0F84010704702884FF6FF43B1
:1030B0001A40028002880A43028070470146888EC7
:1030C00070470146088F70470146888F7047014658
:1030D000B1F8400070470146888C70470146088D62
:1030E000704702460020138A0B400BB1012000E01C
:1030F00000207047CA430282704730B50246002064
:1031000000230024158A05EA0103958905EA0104D4
:1031100013B10CB1012000E0002030BDCA4302828F
:1031200070470000002044490860091D0860091D1F
:103130000860091D086041483F4914310860704724
:1031400000213D498279002A3AD00A461268036874
:103150009A430B461A600A1D126803689A430B1DB6
:103160001A60027911440A6803681A430A60324AF5
:103170000832126803689A432F4B08331A601A1DED
:10318000126803689A432C4B0C331A604279102A58
:103190000ED11A1F126803681A43274B08331A60AE
:1031A0001A1D126803681A43234B0C331A600DE092
:1031B0002149427911440A6803681A430A6005E00C
:1031C000027911440A6803689A430A607047002133
:1031D000016001710C214171002181717047164914
:1031E000103109680143144A1032116070470146DA
:1031F0000020114A143212680A400AB1012000E08E
:10320000002070470C4914310860704701460020C7
:103210000022094B1B6803EA0102074B14331B68A9
:103220000B4013B10AB1012000E0002070470249B1
:10323000143108607047000000040140FFFF0F00D8
:1032400040EA01039B0703D009E008C9121F08C028
:10325000042AFAD203E011F8013B00F8013B521EA8
:10326000F9D27047064C074D06E0E06840F00103D4
:1032700094E8070098471034AC42F6D3FCF75CFFA3
:10328000743500089435000810B500200949C8704D
:1032900004210848FDF784FFFDF7A4FF05490871E4
:1032A000FDF79DFF0349487106210248FDF774F9B7
:1032B00010BD00001800002010B501200949C87099
:1032C00004210848FDF76CFFFDF78CFF05490871E4
:1032D000FDF785FF0349487106210248FDF75CF9B7
:1032E00010BD00001800002002E008C8121F08C12D
:1032F000002AFAD170477047002001E001C1121F77
:10330000002AFBD170470000F0B50B30154D20F0BE
:1033100007010024144A0FE003688B420BD38B4251
:1033200005D95E1A43184768C3E9006700E043689F
:10333000136002C004E0021D10680028ECD1204692
:10334000002802D1286808B10020F0BD064A0748CD
:103350001060074A121A22F00702C0E90024012077
:103360002860D7E73C00002038000020D40400206B
:10337000D006002000C1814001C0804101C08041D1
:1033800000C1814001C0804100C1814000C1814035
:1033900001C0804101C0804100C1814000C1814025
:1033A00001C0804100C1814001C0804101C0804115
:1033B00000C1814001C0804100C1814000C1814005
:1033C00001C0804100C1814001C0804101C08041F5
:1033D00000C1814000C1814001C0804101C08041E5
:1033E00000C1814001C0804100C1814000C18140D5
:1033F00001C0804101C0804100C1814000C18140C5
:1034000001C0804100C1814001C0804101C08041B4
:1034100000C1814000C1814001C0804101C08041A4
:1034200000C1814001C0804100C1814000C1814094
:1034300001C0804100C1814001C0804101C0804184
:1034400000C1814001C0804100C1814000C1814074
:1034500001C0804101C0804100C1814000C1814064
:1034600001C0804100C1814001C0804101C0804154
:1034700000C1814000C0C101C30302C2C60607C724
:1034800005C5C404CC0C0DCD0FCFCE0E0ACACB0B94
:10349000C90908C8D81819D91BDBDA1A1EDEDF1FC4
:1034A000DD1D1CDC14D4D515D71716D6D21213D3B4
:1034B00011D1D010F03031F133F3F23236F6F73764
:1034C000F53534F43CFCFD3DFF3F3EFEFA3A3BFB54
:1034D00039F9F83828E8E929EB2B2AEAEE2E2FEF04
:1034E0002DEDEC2CE42425E527E7E62622E2E32374
:1034F000E12120E0A06061A163A3A26266A6A767A4
:10350000A56564A46CACAD6DAF6F6EAEAA6A6BAB13
:1035100069A9A86878B8B979BB7B7ABABE7E7FBF43
:103520007DBDBC7CB47475B577B7B67672B2B37333
:10353000B17170B0509091519353529296565797E3
:10354000559594549C5C5D9D5F9F9E5E5A9A9B5BD3
:1035500099595898884849894B8B8A4A4E8E8F4F83
:103560008D4D4C8C448485458747468682424383F3
:103570004181804094350008000000204000000098
:10358000E8320008D435000840000020900A00000E
:10359000F832000800A24A04000000000000000009
:1035A00001020304060708090000000000000000F3
:1035B0000000000000000000000000000102030401
:1035C00001020304060708090204060800000000BF
:0435D00000000000F7
:0400000508000131BD
:00000001FF
