:020000040801F1
:10000000C0600020F51F01083D0201083F02010801
:1000100043020108470201084B02010800000000EA
:100020000000000000000000000000004F02010876
:1000300051020108000000005302010855020108A6
:100040000F2001080F2001080F2001080F200108D0
:100050000F2001080F200108631501085F0F010838
:100060000F2001080F2001080F2001080F200108B0
:10007000250B01080F2001082D0601080F2001089B
:100080000F2001088F0801080F2001080F20010828
:100090000F2001080F2001080F2001087B0F010825
:1000A0000F2001080F2001080F2001080F20010870
:1000B0000F200108F71E01080F2001080F2001087A
:1000C0000F2001080F2001080F2001080F20010850
:1000D0000F20010857060108B90801084B0B010859
:1000E000D50F01080F2001080F2001080F2001087B
:1000F0000F2001080F2001080F2001080F20010820
:100100000F2001080F2001080F2001080F2001080F
:100110000F200108371801080F2001080F200108DF
:100120000F2001080F2001080F2001080F200108EF
:10013000DFF80CD004F054FD0048004745010108E9
:10014000C060002037483849086001F0E9FE01F03E
:100150006DFA00F0DBFD01F0CDF801F09BF901F044
:10016000B1FB4FF4A06002F0DBFC4FF4E13000F093
:1001700063F94FF4E13000F099FA4FF4E13000F008
:10018000D3FB4FF4165001F0E5FA01F0BFFB01F08C
:1001900079FD01F064FC01F037FA05252E46304662
:1001A00004F058FD044601202070032060700C20EC
:1001B000A0700D20E0700A2020712946204600F032
:1001C0006BFC01F0AAFD4FF47A7001F0E6FE01F03D
:1001D00075FD01F05BFE23E014480078012804D18E
:1001E00001F046F90020114908701148007800B963
:1001F00000BF01200F49087008460078012806D189
:1002000001F04AFD00200A4908700A4908700A48AE
:100210000078012804D100200749087001F05FFE32
:10022000DAE700000000010808ED00E03C000020D3
:100230001C0000203E00002058000020704700BF36
:10024000FEE700BFFEE700BFFEE700BFFEE7704726
:1002500070477047704700000CB500200190009077
:100260006C48006840F480306A49086000BF694803
:10027000006800F4003000900198401C0190009844
:1002800018B90198B0F5A06FF1D16248006800F488
:10029000003010B10120009001E000200090009893
:1002A000012843D15C48006840F010005A490860BA
:1002B0000846006820F0030008600846006840F027
:1002C0000200086053484068524948600846406848
:1002D00048600846406840F48060486008464068CE
:1002E00020F47C1048600846406840F4E8104860FC
:1002F0000846006840F08070086000BF454800680C
:1003000000F000700028F9D04248406820F0030057
:10031000404948600846406840F00200486000BF1D
:100320003C48406800F00C000828F9D10CBD10B51D
:10033000FFF792FF10BD10B53648006840F001008D
:1003400034490860084640683449084031494860EB
:1003500008460068324908402E490860084600688F
:1003600020F4802008600846406820F4FE004860C1
:100370004FF41F008860FFF7DAFF4FF00060294953
:10038000086010BD10B5002100200022214B5B68E1
:1003900003F00C0121B1042906D0082928D107E077
:1003A000214B224C236027E01F4B204C236023E08D
:1003B000184B5B6803F47010164B5B6803F48032D3
:1003C000022303EB904022B9194B4343174C23609F
:1003D0000DE0104B5B6803F4003323B1144B43432F
:1003E000124C236003E0104B4343104C236003E0A6
:1003F0000D4B0E4C236000BF00BF064B5B68C3F380
:1004000003130C4CE15C094B1B68CB40074C236089
:1004100010BD000000100240002002400000FFF864
:10042000FFFFF6FE08ED00E000127A000000002059
:1004300000093D000400002010B592B004461820C9
:100440008DF8430003208DF842004FF40070ADF8A2
:10045000400010A98E4801F03FFE04208DF84300B3
:100460000002ADF8400010A9894801F035FE0C9457
:100470000020ADF83400ADF83600ADF83800ADF826
:100480003C000C20ADF83A000CA9824802F087F934
:10049000002240F226617F4802F019FA002240F261
:1004A00025517C4802F013FA002240F22771794866
:1004B00002F00DFA012240F22441764802F007FAD8
:1004C00025208DF8440001208DF845008DF8460068
:1004D0008DF8470011A802F028FB012280216D4809
:1004E00002F01AFA012240216A4802F015FA0121AD
:1004F000684802F0E0F90E208DF8440001208DF8E4
:1005000045008DF846008DF8470011A802F00DFB5C
:10051000614802F073FB5F48001D01905F48029044
:100520001020039040200490002005908020069029
:1005300000200790089009904FF400500A90002086
:100540000B9001A9544802F0FBFB01220221524802
:1005500002F02DFC5048143002F050FB4D48001DB5
:1005600001904F480290002003904020049000200A
:1005700005908020069000200790089009904FF485
:1005800040500A9000200B9001A94348143002F01B
:10059000D7FB01214048143002F0FDFB12B010BD22
:1005A00070B504460D4600BF3E4800780028FBD1D8
:1005B00001203C4908702A462146384804F070FA68
:1005C0000021354802F0E7FB2946334802F0F8FBEA
:1005D0000121314802F0DFFB70BD70B505460024F3
:1005E0002C4800882B48001D008800212A48143020
:1005F00002F0D1FB4FF4003002F0FCFB264814302F
:1006000002F0E0FBC0F1400084B2224624492846B3
:1006100004F046FA40212048143002F0D1FB0121B9
:100620001D48143002F0B7FBE0B270BD10B54FF4B6
:10063000005002F0EAFB68B14FF4005002F0DAFB20
:100640000021154802F0A7FB012240F22661114863
:1006500002F03DF910BD10B540F226610D4802F0E0
:100660001BFA40B1002240F226610A4802F02FF93D
:1006700000200C49087040F22441064802F00CFAB0
:1006800028B10948FFF7A9FF0749491E087010BDA6
:100690000008014000380140440002407C00002076
:1006A000BC00002014000020FD00002010B592B016
:1006B000044618208DF8430003208DF842000420E2
:1006C000ADF8400010A9914801F006FD04208DF816
:1006D00043000820ADF8400010A98C4801F0FCFC54
:1006E0000C940020ADF83400ADF83600ADF83800B9
:1006F000ADF83C000C20ADF83A000CA9844802F09B
:100700004EF8002240F22661814802F0E0F8002213
:1007100040F225517E4802F0DAF8002240F22771BB
:100720007B4802F0D4F8012240F22441784802F0DC
:10073000CEF826208DF8440001208DF845008DF874
:1007400046008DF8470011A802F0EFF90122802140
:100750006F4802F0E1F8012240216D4802F0DCF818
:1007600001216B4802F0A7F811208DF84400012008
:100770008DF845008DF846008DF8470011A802F06D
:10078000D4F9644802F03AFA6148001D01906248C9
:1007900002901020039040200490002005908020BB
:1007A000069000200790089009904FF400500A909E
:1007B00000200B9001A9574802F0C2FA0122022141
:1007C000544802F0F4FA5348143802F017FA50482B
:1007D000001D019051480290002003904020049099
:1007E0000020059080200690002007900890099036
:1007F0004FF440500A9000200B9001A9454814384E
:1008000002F09EFA01214348143802F0C4FA12B0F3
:1008100010BD70B504460D462A4621463E4804F0F8
:100820003FF900213B4802F0B6FA2946394802F068
:10083000C7FA0121374802F0AEFA70BD70B505461F
:100840000024334800883248001D008800213148C8
:10085000143802F0A0FA4FF4001002F0CBFA2D4841
:10086000143802F0AFFAC0F1400084B222462B499E
:10087000284604F015F940212648143802F0A0FA61
:1008800001212448143802F086FAE0B270BD10B598
:100890004FF0007002F0B9FA68B14FF0007002F04A
:1008A000A9FA00211B4802F076FA012240F22661E3
:1008B000174802F00CF810BD10B540F2266114483C
:1008C00002F0EAF840B1002240F22661104801F03F
:1008D000FEFF00201249087040F224410C4802F04B
:1008E000DBF890B10F48FFF7A9FF0E49491E0870C9
:1008F0000A4800F08AFD10B1084800F0B9FB07482B
:1009000000F0EFFD08B100F0CDFD10BD0008014082
:100910000044004080000240FE0100203E02002012
:10092000150000207F02002010B592B0044601217E
:10093000974801F0A2FC18208DF8430003208DF8A1
:1009400042004FF48060ADF8400010A9914801F0DA
:10095000C3FB04208DF843004002ADF8400010A90D
:100960008C4801F0B9FB0C940020ADF83400ADF8D0
:100970003600ADF83800ADF83C000C20ADF83A0078
:100980000CA9854801F00BFF002240F22661824845
:1009900001F09DFF002240F225517F4801F097FFB2
:1009A000002240F227717C4801F091FF012240F2C1
:1009B0002441794801F08BFF27208DF84400012065
:1009C0008DF845008DF846008DF8470011A802F01B
:1009D000ACF801228021704801F09EFF01224021E5
:1009E0006D4801F099FF01216B4801F064FF0C2074
:1009F0008DF8440001208DF845008DF846008DF8F3
:100A0000470011A802F091F8644802F0F7F8624834
:100A1000001D019062480290102003904020049035
:100A200000200590802006900020079008900990F3
:100A30004FF400500A9000200B9001A9574802F093
:100A40007FF901220221554802F0B1F953481430D0
:100A500002F0D4F85048001D019052480290002046
:100A600003904020049000200590802006900020F4
:100A70000790089009904FF440500A9000200B9086
:100A800001A94648143002F05BF9012143481430B3
:100A900002F081F912B010BD70B504460D4600BFDA
:100AA000414800780028FBD101203F4908702A46C0
:100AB00021463B4803F0F4FF0021384802F06BF96F
:100AC0002946364802F07CF90121344802F063F9E6
:100AD00070BD70B5054600242F4800882E48001DC3
:100AE000008800212D48143002F055F94FF40070B1
:100AF00002F080F92948143002F064F9C0F1400096
:100B000084B222462749284603F0CAFF40212348E1
:100B1000143002F055F901212048143002F03BF95D
:100B2000E0B270BD10B5202002F06FF960B1202056
:100B300002F060F90021194802F02DF9012240F27B
:100B40002661154801F0C3FE10BD10B540F22661C4
:100B5000114801F0A1FF40B1002240F226610E4889
:100B600001F0B5FE00201049087040F224410A4807
:100B700001F092FF50B10D48FFF7ABFF0B49491E42
:100B8000087008460178074800F04AFC10BD0000D4
:100B90001000140000100140004800401C000240FA
:100BA00080030020C0030020160000200104002064
:100BB00030B589B005460C464FF48070ADF8200082
:100BC00018208DF8230003208DF8220008A94D4835
:100BD00001F082FAADF81850ADF814400020ADF8DD
:100BE0001A00ADF8160005A9474802F005FA702072
:100BF000ADF804000120ADF806000020ADF80A00B1
:100C0000ADF80C0001A9404802F0C2FA01213E48AB
:100C100002F05AFD08213C4802F090FE01213A48BA
:100C200002F046FE0121384802F042FD4FF4007008
:100C3000ADF8200018208DF8230003208DF8220045
:100C400008A9304801F048FAADF81850ADF8144042
:100C50000020ADF81A00ADF8160005A92A4802F0E8
:100C6000CBF97020ADF804000120ADF8060000209B
:100C7000ADF80A00ADF80C0001A9234802F0D3FA40
:100C80000121214802F020FD08211F4802F05FFEEB
:100C900001211D4802F00CFE01211B4802F008FD55
:100CA00009B030BD10B5002140F2CF20FFF780FF22
:100CB00010BD70B50446012C0EDD642C0CDCC4F1B3
:100CC00064004FF434714843642190FBF1F085B225
:100CD00029460D4802F088FF70BD70B50446012C0E
:100CE0000EDD642C0CDCC4F164004FF43471484315
:100CF000642190FBF1F085B22946034802F076FFAB
:100D000070BD0000000C0140000800401FB502202B
:100D1000ADF80C0048208DF80F0003A9BB4801F086
:100D2000DBF90121084601F0EDFA022000900020D5
:100D30008DF8040008208DF8050001208DF80600CC
:100D4000684602F0A1FF07208DF8080001208DF809
:100D500009008DF80A008DF80B0002A801F0E5FEED
:100D60004020ADF80C0048208DF80F0003A9A848DA
:100D700001F0B2F90621022001F0C4FA40200090EF
:100D800000208DF804000C208DF8050001208DF85E
:100D90000600684602F078FF17208DF80800012051
:100DA0008DF809008DF80A008DF80B0002A801F0FB
:100DB000BCFE8020ADF80C0048208DF80F0003A980
:100DC000934801F089F90721022001F09BFA802065
:100DD000009000208DF804000C208DF80500012003
:100DE0008DF80600684602F04FFF17208DF80800C6
:100DF00001208DF809008DF80A008DF80B0002A87B
:100E000001F093FE4FF48070ADF80C0048208DF88F
:100E10000F0003A97E4801F05FF90821022001F0CC
:100E200071FA4FF48070009000208DF804000C20BF
:100E30008DF8050001208DF80600684602F024FFB9
:100E400017208DF8080001208DF809008DF80A00A0
:100E50008DF80B0002A801F068FE4FF40070ADF8A9
:100E60000C0048208DF80F0003A9694801F034F9FF
:100E70000921022001F046FA4FF400700090002092
:100E80008DF804000C208DF8050001208DF8060077
:100E9000684602F0F9FE17208DF8080001208DF851
:100EA00009008DF80A008DF80B0002A801F03DFE44
:100EB0004FF48060ADF80C0048208DF80F0003A9B6
:100EC000524801F009F90A21012001F01BFA4FF400
:100ED0008060009000208DF804000C208DF8050043
:100EE00001208DF80600684602F0CEFE28208DF81D
:100EF000080001208DF809008DF80A008DF80B001C
:100F000002A801F012FE4FF40060ADF80C0048207A
:100F10008DF80F0003A93D4801F0DEF80B210120F8
:100F200001F0F0F94FF40060009000208DF804000B
:100F30000C208DF8050001208DF80600684602F0AF
:100F4000A3FE28208DF8080001208DF809008DF8F7
:100F50000A008DF80B0002A801F0E7FD1FBD10B5D7
:100F6000022001F01AF8022002F0F4FE20B103F092
:100F700049FE022002F0FFFE10BD10B5022001F074
:100F80000CF8402002F0E6FE20B100F0C0F940204D
:100F900002F0F1FE802002F0DDFE20B100F0CCF97D
:100FA000802002F0E8FE4FF4807002F0D3FE28B1FA
:100FB00000F0D7F94FF4807002F0DDFE4FF40070BE
:100FC00002F0C8FE28B100F0E1F94FF4007002F021
:100FD000D2FE10BD10B5022000F0DFFF4FF480609C
:100FE00002F0B8FE28B100F0E6F94FF4806002F09C
:100FF000C2FE4FF4006002F0ADFE28B100F0F0F93F
:101000004FF4006002F0B7FE10BD0000000C01407C
:1010100000100140704710B50A46FF23104C2370A2
:10102000104C237010E010F8013B0E4C247883EA3A
:1010300004010D4B5B5C0A4C24786340094C23701F
:101040000A4B5B5C064C2370131EA2F10104E2B252
:10105000E9D110BD02480078704702480078704717
:101060001700002018000020C04C0108C04D0108E6
:1010700070B504466078401F85B2002005E0C11CB1
:10108000615C054A1154411CC8B24028F7DB29466F
:101090000148FFF701FD70BD0205002008B50220E0
:1010A000ADF8000010208DF8030003208DF8020039
:1010B00069464A4801F010F81020ADF800008DF89C
:1010C000030003208DF802006946444801F004F84B
:1010D00008BD08B54FF48040ADF8000010208DF831
:1010E000030003208DF8020069463C4800F0F4FF3D
:1010F00008BD08B54FF40040ADF8000010208DF891
:10110000030003208DF802006946344800F0E4FF34
:1011100008BD08B50820ADF8000010208DF80300C8
:1011200003208DF8020069462D4800F0D5FF4FF4EA
:101130000050ADF8000010208DF8030003208DF85A
:1011400002006946254800F0C7FF08BD08B5102019
:10115000ADF800008DF8030003208DF80200694609
:101160001F4800F0B9FF08BD08B52020ADF8000009
:1011700010208DF8030003208DF8020069461848FE
:1011800000F0AAFF08BD08B54020ADF8000010200F
:101190008DF8030003208DF802006946104800F026
:1011A0009BFF8020ADF8000010208DF80300032085
:1011B0008DF8020069460A4800F08EFF08BD08B5A8
:1011C0000420ADF8000010208DF8030003208DF8F6
:1011D00002006946034800F07FFF08BD0008014097
:1011E000000C0140001001403D48008870473C4918
:1011F0000880704710B5FFF7C6FFFFF753FD10BD1D
:1012000010B50020374908603749C1F89C01052016
:10121000FFF74FFD10BD10B50446012031490860AD
:1012200000203149C1F89C012046FFF742FD10BD66
:1012300010B5044600202B49086001202A49C1F856
:101240009C012046FFF735FD10BD254800884FF66C
:10125000FF71884204DA22480088401C2049088037
:1012600001202249087070471D480088002804DDCD
:101270001B480088401E1A49088001201B4908703D
:10128000704710B5FFF745FFFFF70CFD10BD10B517
:10129000002014490C3908601549C1F8B401052033
:1012A000FFF71BFD10BD10B5044601200D490C3998
:1012B000086000200E49C1F8B4012046FFF70DFD7B
:1012C00010BD10B50446002006490C390860012005
:1012D0000749C1F8B4012046FFF7FFFC10BD00002C
:1012E0001A00002098812142008021421C00002029
:1012F000000021425A2080490870062048700120D1
:101300008870FF20C870002008714871704710B5C0
:1013100006207949C87004217748FFF77CFEFFF763
:101320009CFE75490871FFF795FE734948710621C7
:101330007148FFF76EFA10BD10B507206E49C870EE
:1013400004216D48FFF767FEFFF787FE6A490871C1
:10135000FFF780FE6849487106216748FFF759FA90
:1013600010BD10B508206449C87004216248FFF719
:1013700052FEFFF772FE60490871FFF76BFE5E498F
:10138000487106215C48FFF744FA10BD10B50920EA
:101390005949C87004215848FFF73DFEFFF75DFE2C
:1013A00055490871FFF756FE5349487106215248C6
:1013B000FFF72FFA10BD10B50A204F49C87004215D
:1013C0004D48FFF728FEFFF748FE4B490871FFF72D
:1013D00041FE4949487106214748FFF71AFA10BDF6
:1013E00010B50B204449C87004214348FFF713FE91
:1013F000FFF733FE40490871FFF72CFE3E49487164
:1014000006213D48FFF705FA10BD014688780228FD
:1014100004D10878A52801D1012070470020FCE7FD
:1014200070B505460C465A2034490870601D487056
:1014300002208870002004E02A5CC11C2F4B5A5403
:10144000401CA042F8DBE01CC1B22C48FFF7E3FDD2
:10145000FFF703FE294AE11C5054FFF7FBFD274A22
:10146000211D5054601D81B21046FFF7D2F970BDA6
:1014700010B508212248FFF7CEFDFFF7EEFD204909
:101480000872FFF7E7FD1E4948720A211C48FFF762
:10149000C0F910BD5A201B4908700720487004206D
:1014A0008870704710B51848006803F04EFB000ABA
:1014B0001449C8701448006803F047FB11490871CB
:1014C00005211048FFF7A7FDFFF7C7FD0D4948713B
:1014D000FFF7C0FD0B49887107210A48FFF799F90A
:1014E00010BD01468878042804D10878A52801D1C8
:1014F000012070470020FCE71D00002002050020AD
:10150000A205002023000020380000201FB5012084
:10151000ADF80C0028208DF80F0003A93D4800F01D
:10152000DBFD0021022000F0EDFE012000900020F4
:101530008DF8040008208DF8050001208DF80600C4
:10154000684602F0A1FB06208DF8080001208DF806
:1015500009008DF80A008DF80B0002A801F0E5FAE9
:101560001FBD10B5012002F0F5FB60B34FF08040C5
:1015700002F055FB284908600846006827490968B9
:10158000884207D92448006824490968401A244938
:10159000086009E0204800684FF6FE7108441F49C2
:1015A0000968401A1E4908601D48006803F0C8FA1F
:1015B000044621461B4803F085FA1B49086016487B
:1015C000006816490860012002F0D5FB10BD0EB579
:1015D0004FF6FF70ADF8040041F61F40ADF8000073
:1015E0000020ADF80200ADF8060069464FF08040DB
:1015F00001F002FD00220121880702F074F80121A8
:10160000880702F055F80EBD10B5FFF77FFFFFF712
:10161000DEFF10BD001001402C0000203000002033
:1016200034000020005043483800002010B501214C
:10163000042001F00DF80121880301F009F80121CF
:10164000084600F0F8FF0121084600F0F4FF0121F0
:10165000042000F0FDFF0121480401F006F80121FB
:10166000084600F0E8FF0121084600F0E4FF0121F0
:10167000102000F0EDFF0121880400F0F6FF0121A9
:10168000084600F0D8FF0121084600F0D4FF0121F0
:10169000302000F0DDFF0121080500F0E6FF012108
:1016A000042000F0D5FF0121084600F0D1FF012100
:1016B000084600F0DAFF0121042000F0D6FF0121E6
:1016C000092000F0C5FF0121042000F0CEFF012118
:1016D000092000F0BDFF0121182000F0B9FF012111
:1016E000084600F0B5FF0121042000F0B1FF012100
:1016F000042000F0ADFF0121042000F0A9FF01212A
:101700000C2000F0A5FF0121082000F0A1FF01211D
:10171000082000F09DFF0121082000F099FF012121
:10172000102000F095FF01214FF4017000F090FFB0
:101730000121084600F07FFF0121082000F088FF0A
:101740000121880300F091FF0121022000F08DFFAC
:1017500010BD000010B586B0044618208DF81300A7
:1017600003208DF812004FF48050ADF8100004A94A
:101770004C4800F0B1FC04208DF81300ADF81000C7
:1017800004A9494800F0A8FC00940020ADF804002A
:10179000ADF80600ADF80800ADF80C000C20ADF86F
:1017A0000A006946414800F0FAFF002240F2266133
:1017B0003E4801F08CF8012240F225513B4801F0EF
:1017C00086F8002240F22771384801F080F80122A3
:1017D00040F22441354801F07AF835208DF81400A4
:1017E00001208DF815008DF816008DF8170005A85A
:1017F00001F09BF901212D4801F05DF806B010BD04
:1018000070B506460C4622463146294803F048F991
:1018100000250DE000BF4021244801F027F90028F1
:10182000F9D02348415D214801F0B2F8681CC5B2E7
:10183000A542EFDB70BD10B540F225511B4801F009
:101840002BF950B119488088C1B21A480278007843
:10185000401C184B18701848815440F2244113481A
:1018600001F01AF9E8B10020124908700F48008809
:101870000E488088104800F035F890B10E48807905
:101880000E49C8700C48C07908710B48007A48713D
:101890000948C07A88710848407BC871012008490E
:1018A000087010BD001001400014014000500040BD
:1018B000220500203D00002062050020A205002036
:1018C0003C0000205A20104908700A20487003206C
:1018D0008870FF20C870087148718871C8710872DB
:1018E000487270470146C87884280AD18878012850
:1018F00007D14878102804D10878FE2801D10120AA
:1019000070470020FCE70000A205002000B591B060
:101910000120ADF8400000208DF8430010A93D489B
:1019200000F0DAFB3C4801F069F93C4805903C487E
:101930000690002007900720089000200990802042
:101940000A9040000B9080000C9020200D90000227
:101950000E9000200F9005A92F4801F0F1F9012108
:101960002D4801F018FA002000908DF804000120A5
:101970008DF805004FF460200290002003900120B4
:101980008DF81000694625484C3802F024FA4FF4CF
:10199000004000F0C1FD0523012200211F484C3802
:1019A00002F0B1FA01211D484C3802F04BFA012136
:1019B0001A484C3802F03BFA18484C3802F059FAF1
:1019C00000BF16484C3802F059FA0028F9D11348E4
:1019D0004C3802F05DFA00BF10484C3802F05DFA56
:1019E0000028F9D101210D484C3802F060FA11B0FD
:1019F00000BD0020002106E0094A32F8112002440F
:101A000090B24A1C91B20729F6DB072290FBF2F252
:101A100090B2704700080140080002404C24014089
:101A2000AC05002070B5044600204249086000253E
:101A300005E0681CC5B2C82D01DD002070BD022183
:101A40003D4802F018FD0028F3D021463A4802F044
:101A5000BFFC002501203749086000BFEEE700B554
:101A600087B04FF48050ADF8180010208DF81B009F
:101A700003208DF81A0006A9304800F02DFB4FF422
:101A80000050ADF8180018208DF81B0003208DF8C9
:101A90001A0006A9294800F01FFB4FF48040ADF85A
:101AA000180048208DF81B0003208DF81A0006A9A5
:101AB000224800F011FB4FF40040ADF81800182048
:101AC0008DF81B0003208DF81A0006A91B4800F0B2
:101AD00003FB4FF48051194800F0ABFB0020ADF838
:101AE00004004FF48270ADF806004FF40060ADF8CA
:101AF00008000220ADF80A000120ADF80C004002F9
:101B0000ADF80E003820ADF810000020ADF812003E
:101B10000720ADF8140001A9074802F083FB01215A
:101B2000054802F024FC4FF6FF70FFF77BFF07B07B
:101B300000BD0000B081214200380040000C01408F
:101B40000146088870472DE9F04105460E461746C4
:101B5000002407E036F81410284602F02AFEAD1CD7
:101B6000601C84B2BC42F5DBBDE8F08130B50346B1
:101B70000C461546002207E01846FFF7E1FF24F85F
:101B800012009B1C501C82B2AA42F5DB30BD2DE92D
:101B9000F74F80461746B8F1006F02D34F48804593
:101BA00001D3BDE8FE8F02F0BCFCA8F1006B4FEA48
:101BB000DB25CBF34909C9F58064A74200DC3C462C
:101BC0004FF0000A4FF4806000F036F982464EE094
:101BD0004FF0006101EBC5204A145146FFF7C6FFE4
:101BE00000260AE009EB06003AF810004FF6FF71F4
:101BF000884200D003E0701C86B2A642F2DB00BF30
:101C0000A6421BDA4FF0006101EBC52002F0CEFCCA
:101C1000002608E0019830F8160006EB09012AF8C2
:101C20001100701C86B2A642F4DB4FF0006101EB9C
:101C3000C5204A145146FFF786FF04E0224640467D
:101C40000199FFF780FFA74200D111E06D1C4FF012
:101C50000009019800EB44000190A044381B87B2B2
:101C6000B7F5806F02DD4FF4806400E03C46AFE7DB
:101C700000BF504600F0D4F84FF0000A02F05DFCBF
:101C800000BF8EE7002004E00021154A22F8101062
:101C9000401C0228F8DB704710B55A201049088014
:101CA00010480078012803D1FFF79EFA0C494880BC
:101CB00002220B490C48FFF76AFF10BD08B502224B
:101CC00069460948FFF752FFBDF800005A2803D1C2
:101CD000BDF80200FFF78BFA08BD00000000040801
:101CE000400000201C00002000F8070870B50346E3
:101CF0000C4603E014F8015B03F8015B151EA2F12A
:101D00000102F7D170BD30B5034601E003F8011BB5
:101D1000141EA2F10102F9D130BD00B55A494FF4A9
:101D2000A062C8680021FFF7EEFF57494FF4A042B8
:101D300088680021FFF7E7FF01205349087400BDC0
:101D40000022002106E05048C06830F8110000B1C0
:101D5000521C491CB1F5207FF5D3642050434FF449
:101D60002073B0FBF3F0C0B270472DE9F041064696
:101D70000024A0464448007C10B9434908688047C5
:101D80001EB94FF0FF30BDE8F081C6F34F1506F0E5
:101D90001F0008B1681C85B240F27F241AE03A485F
:101DA000C06830F8140020B908F101001FFA80F86B
:101DB00001E04FF00008A8450BD1002705E03248AC
:101DC000C068E11920F811507F1CAF42F7D36001C1
:101DD000D9E7641E002CE2DA4FF0FF30D3E770B58C
:101DE00005462948007C20B927490868804701201A
:101DF00070BDB5F5A04F11D269092348C06830F80D
:101E00001120002406E000201F4BDB680E1923F888
:101E10001600641C9442F6DB0020E9E70220E7E7A5
:101E200070B5044604B970BD17488068251A284665
:101E3000FFF7D5FF00BFF6E770B505462846FFF768
:101E400094FF0446601C08B9002070BD0E488068ED
:101E50002044FAE770B506460C462046FFF785FF9A
:101E60000546681C08B9002070BD074989684819F3
:101E700022463146FFF73AFF3046FFF7D1FF0248CE
:101E800080682844F0E70000440000201FB541F2BC
:101E90008730ADF8080041F61F40ADF8040000207F
:101EA000ADF80600ADF80A0001A91B4801F0A4F83E
:101EB00001221146184801F016FC1D208DF8000083
:101EC00001208DF801008DF802008DF803006846AE
:101ED00000F02BFE0121104801F0EAFB1FBD10B5F8
:101EE00001210D4801F0E4FB10BD10B500210A48A6
:101EF00001F0DEFB10BD10B50121074801F0A1FE85
:101F000040B10121044801F0ADFE012003490870F1
:101F1000FFF7EBFF10BD0000000400405800002058
:101F200010B56FF0040000F04AFE2E4800682E49FC
:101F3000B0FBF1F02D4908700846007800EB400135
:101F4000C1EBC0104FF6FF7101EAC00028490880BC
:101F500010BD0146254A12784A434FF0E0235A61EA
:101F600000229A611A46126942F001021A6100BF0A
:101F70004FF0E022106900F001021AB100F4803243
:101F8000002AF5D04FF0E022126922F001024FF052
:101F9000E0231A6100229A6170470146144A1288B0
:101FA0004A434FF0E0235A6100229A611A461269AF
:101FB00042F001021A6100BF4FF0E022106900F008
:101FC00001021AB100F48032002AF5D04FF0E0226D
:101FD000126922F001024FF0E0231A6100229A6197
:101FE000704700000000002000127A005A00002014
:101FF0005C0000200648804706480047FEE7FEE7F1
:10200000FEE7FEE7FEE7FEE7FEE7FEE7FEE7FEE7A8
:10201000370301083101010810B50446CC48844259
:1020200008D10121042000F02DFB0021042000F044
:1020300029FB46E0C748844208D10121082000F06E
:1020400021FB0021082000F01DFB3AE0C248844239
:1020500008D10121102000F015FB0021102000F014
:1020600011FB2EE0BD48844208D10121202000F060
:1020700009FB0021202000F005FB22E0B848844243
:1020800008D10121402000F0FDFA0021402000F09D
:10209000F9FA16E0B348844208D10121802000F00B
:1020A000F1FA0021802000F0EDFA0AE0AE48844207
:1020B00007D10121801500F0E5FA0021A01500F0FC
:1020C000E1FA10BD10B50121084600F0DBFA00214D
:1020D000012000F0D7FA10BD2DE9F041024600259D
:1020E0000026002000230024002791F803C00CF0F4
:1020F0000F0591F803C00CF0100CBCF1000F03D0D9
:1021000091F802C04CEA050591F800C0BCF1000F3F
:1021100031D0146800202BE04FF0010C0CFA00F3D2
:10212000B1F800C00CEA03069E4220D183004FF0B4
:102130000F0C0CFA03F7BC4305FA03FC4CEA040449
:1021400091F803C0BCF1280F06D14FF0010C0CFA36
:1021500000FCC2F814C00AE091F803C0BCF1480FBB
:1021600005D14FF0010C0CFA00FCC2F810C0401C65
:102170000828D1D31460B1F800C0BCF1FF0F34DDE2
:10218000546800202EE000F1080C4FF0010808FA16
:102190000CF3B1F800C00CEA03069E4221D1830083
:1021A0004FF00F0C0CFA03F7BC4305FA03FC4CEAA2
:1021B000040491F803C0BCF1280F05D100F1080C0C
:1021C00008FA0CF8C2F8148091F803C0BCF1480F6B
:1021D00007D100F1080C4FF0010808FA0CF8C2F81A
:1021E0001080401C0828CED35460BDE8F0814FF623
:1021F000FF710180022181700421C1707047024685
:10220000002093680B400BB1012000E000207047D4
:102210000146886880B2704702460020D3680B40B0
:102220000BB1012000E0002070470146C86880B271
:10223000704701617047416170470AB1016100E078
:1022400041617047C16070474FF480320A43826138
:102250008161826182698269704702460020434B36
:1022600018684FF68073184040EA021008433F4B4D
:10227000186070473E49C8617047F0B50A460023B0
:1022800000240021002500F00046B6F1004F02D1E5
:10229000364EF16901E0354E7168C0F3034583B2F3
:1022A00000F44016B6F5401F08D121F070612F4EA2
:1022B000766826F070662D4F7E6012E000F480167E
:1022C000B6F5801F06D1032606FA05F4A14341F0B6
:1022D000706106E0460D360103FA06F6B14341F09F
:1022E000706122B1460D360103FA06F6314300F063
:1022F0000046B6F1004F02D11C4EF16101E01B4EC9
:102300007160F0BD30B500228B071C0F0F2303FA5C
:1023100004F2164B08338C1053F824309343134CBB
:1023200008348D1044F8253023468C1053F824309F
:102330008C07240F00FA04F423430C4C08348D104E
:1023400044F8253030BD0A49DC3108607047000090
:1023500000080140000C0140001001400014014041
:1023600000180140001C0140002001400000014015
:1023700000002042DF48006840F00100DD490860AD
:1023800008464068DC490840DA4948600846006869
:10239000DA490840D74908600846006820F48020E0
:1023A00008600846406820F4FE0048604FF41F00B3
:1023B00088607047CF49096821F48031CD4A1160A7
:1023C0001146096821F480211160B0F5803F03D0E7
:1023D000B0F5802F0ED106E0C649096841F480317E
:1023E000C44A116007E0C349096841F4A021C14A09
:1023F000116000E000BF00BF704710B50146002229
:10240000002300204A11012A02D1BA4C236806E0B9
:10241000022A02D1B74C236A01E0B64C636A01F08C
:102420001F02012494401C400CB1012000E0002058
:1024300010BD38B5002000900024002500BF3120D9
:10244000FFF7DBFF05460098401C00900098B0F5B0
:10245000A06F01D0002DF2D03120FFF7CEFF08B1E0
:10246000012400E00024204638BD01460020A14A96
:10247000106820F0F80040EAC10010607047A049E1
:1024800008607047024600209A4B586820F47C1080
:1024900042EA01031843974B586070479849086611
:1024A000704701460020934A506820F0030008431B
:1024B000506070478F48406800F00C00704701463C
:1024C00000208C4A506820F0F000084350607047AC
:1024D00001460020874A506820F4E06008435060BD
:1024E000704701460020834A506820F4605040EA5B
:1024F000C1005060704729B17E4A527A02437D4B39
:102500005A7204E07B4A527A82437A4B5A7270477D
:102510007B49D8310860704701460020754A5068F1
:1025200020F440400843506070470021714A203237
:102530001170704A82F82010012802D004280AD1B4
:1025400004E001216B4A2032117005E00521694A3F
:102550002032117000E000BF00BF70476949086079
:1025600070476449096A0143624A116270476549CC
:1025700044390860704730B5002100220024002350
:102580005C4D6D6805F00C0121B1042905D00829C6
:1025900023D105E05C4D056022E05B4D05601FE046
:1025A000544D6D6805F47012524D6D6805F4803419
:1025B000022505EB92421CB9544D554305600BE0D2
:1025C0004C4D6D6805F400351DB1504D5543056007
:1025D00002E04D4D5543056002E04B4D056000BFE4
:1025E00000BF444D6D6805F0F0010909484D6B5C72
:1025F0000568DD4045603F4D6D6805F4E061090AFE
:10260000434D6B5C4568DD4085603A4D6D6805F46F
:102610006051C90A3E4D6B5C4568DD40C560354D73
:102620006D6805F44041890B3A4D6B5CC568B5FB9C
:10263000F3F5056130BD29B12E4A526902432D4B95
:102640005A6104E02B4A526982432A4B5A6170470F
:1026500029B1284A92690243264B9A6104E0254A2F
:1026600092698243234B9A61704729B1214AD2690A
:102670000243204BDA6104E01E4AD26982431D4BBB
:10268000DA61704729B11B4AD2680243194BDA60FC
:1026900004E0184AD2688243164BDA60704729B1C9
:1026A000144A12690243134B1A6104E0114A126979
:1026B0008243104B1A6170471249403908607047D5
:1026C0000F49C86470470B49C87170470948406A90
:1026D00040F0807007494862704701460020054A73
:1026E00092680A400AB1012000E0002070470149C9
:1026F00088727047001002400000FFF8FFFFF6FEEE
:10270000000042428004424200127A0000093D006B
:102710005E0000206E00002010B50446FB48844295
:1027200009D101218803FFF7ADFF00214FF480405C
:10273000FFF7A8FF32E0F648844209D1012148049E
:10274000FFF7ADFF00214FF40030FFF7A8FF25E0B1
:10275000F048844209D101218804FFF7A0FF00213D
:102760004FF48020FFF79BFF18E0EB48844209D12B
:102770000121C804FFF793FF00214FF40020FFF769
:102780008EFF0BE0E548844208D101210805FFF7E0
:1027900086FF00214FF48010FFF781FF10BD2DE967
:1027A000F04786B005460E460024A24600BFA1466B
:1027B0000027B08900B100BF2F462C8A4CF6FF706D
:1027C0000440F08804432C82AC894EF6F310044098
:1027D000B08831890843718908430443AC81AC8ACD
:1027E0004FF6FF400440B0890443AC8201A8FFF7D4
:1027F000C2FEC648874202D1DDF810A001E0DDF834
:102800000CA0A88900F4004040B10AEBCA0000EB1C
:102810000A1031684900B0FBF1F807E00AEBCA0082
:1028200000EB0A1031688900B0FBF1F86420B8FBB6
:10283000F0F004012009642101FB1089A88900F44B
:10284000004040B1322000EBC900B0FBF1F000F0D5
:102850000700044308E0322000EB09106421B0FBBC
:10286000F1F000F00F0004432C8106B0BDE8F087C2
:102870004FF41651016000218180C18001810C213B
:10288000418100218181704710B502460020108AE5
:102890004FF2FF0318400B884C8823438C88234356
:1028A000CC8823431843108210BD00210180418051
:1028B0008180C180704721B1828942F400528281B7
:1028C00004E082894DF6FF731A4082817047F0B5AB
:1028D0000346002400260025002040F66A17B9426E
:1028E00000D100BF1846C1F3421401F01F060127B2
:1028F00007FA06F5012C01D10C3004E0022C01D1BD
:10290000103000E014301AB107682F43076002E06E
:102910000768AF430760F0BD1AB1838A0B43838217
:1029200002E0838A8B4383827047028A4FF6F073FA
:102930001A400282028A0A430282704782894FF259
:10294000FF731A40828182890A438281704721B1D4
:10295000828942F00202828104E082894FF6FD738F
:102960001A4082817047028A4FF6DF731A40028252
:10297000028A0A430282704721B1028A42F48042ED
:10298000028204E0028A4BF6FF731A40028270470B
:10299000C1F308028280704701468888C0F30800AE
:1029A0007047818941F0010181817047028BD2B269
:1029B0000283028B42EA012202837047028B02F4F7
:1029C0007F420283028B0A430283704721B1828ACD
:1029D00042F02002828204E0828A4FF6DF731A40BE
:1029E0008282704721B1828A42F01002828204E022
:1029F000828A4FF6EF731A408282704721B1828A31
:102A000042F00802828204E0828A4FF6F7731A408D
:102A10008282704721B1828942F40042828103E0C0
:102A20008289C2F30E028281704721B1828A42F408
:102A30000062828204E0828A4FF2FF731A4082822F
:102A40007047828A4FF6FB731A408282828A0A4359
:102A50008282704721B1828A42F00202828204E0BF
:102A6000828A4FF6FD731A40828270470246002028
:102A7000B1F5007F00D100BF13880B400BB10120DE
:102A800000E00020704701F40072B2F5007F00D131
:102A900000BFCA430280704770B50246002400237D
:102AA0000025002040F66A16B14200D100BFC1F3F4
:102AB000421501F01F03012606FA03F3012D02D18E
:102AC0009689334006E0022D02D1168A334001E098
:102AD000968A33400C12012606FA04F41688344014
:102AE00013B10CB1012000E0002070BD10B5002230
:102AF000002340F66A14A14200D100BF0A1201244B
:102B00009440A3B2DC43048010BD000000380140B3
:102B10000044004000480040004C0040005000408D
:102B200031490143314A1160704770B500210023DB
:102B30000F22C47804B32D4C246804F4E064C4F577
:102B4000E064210AC1F10403CA40447804FA03F1A5
:102B50008478144021430901254C0678A155047856
:102B600004F01F050124AC4005786D11AD0005F19E
:102B7000E025C5F8004109E0047804F01F050124B0
:102B8000AC401C4D0678761145F8264070BD1A4AB7
:102B90000A400243154B1B1F1A60704739B1134A94
:102BA000121D12680243114B1B1D1A6006E00F4AEA
:102BB000121D126882430D4B1B1D1A6070470428BA
:102BC00008D14FF0E021096941F004014FF0E02203
:102BD000116107E04FF0E021096921F004014FF095
:102BE000E0221161704700000000FA050CED00E0E2
:102BF00000E400E080E100E080FFFF1F01684FF685
:102C0000FE72114001600021016041608160C1607D
:102C10008D49884208D18C490839496841F00F0133
:102C2000894A083A51608AE087491431884208D1BC
:102C300085490839496841F0F001834A083A5160F2
:102C40007DE081492831884208D17F4908394968A7
:102C500041F470617C4A083A516070E07A493C3135
:102C6000884208D178490839496841F47041764A68
:102C7000083A516063E074495031884208D1724982
:102C80000839496841F470216F4A083A516056E0AA
:102C90006D496431884208D16B490839496841F46B
:102CA0007001694A083A516049E0674978318842C1
:102CB00008D165490839496841F07061624A083AAB
:102CC00051603CE06149884206D1011F096841F02A
:102CD0000F01021F116032E05C491431884208D1B3
:102CE0005A49091F096841F0F001584A121F116042
:102CF00025E056492831884208D15449091F0968FE
:102D000041F47061514A121F116018E04F493C3183
:102D1000884208D14D49091F096841F470414B4A66
:102D2000121F11600BE049495031884207D14749D1
:102D3000091F096841F47021444A121F116070474D
:102D400010B50022026847F6F0739A430C6A8B684C
:102D500023430C6923434C6923438C692343CC6987
:102D600023434C6A23438C6A23431A430260CB6893
:102D700043600B6883604B68C36010BD0021016035
:102D800041608160C160016141618161C161016235
:102D900041628162704721B1026842F00102026023
:102DA00004E002684FF6FE731A40026070471AB1E1
:102DB00003680B43036002E003688B4303607047C2
:102DC000416070470146486880B270470146002064
:102DD000002201F080531BB11C4B083B1A6802E033
:102DE000194B083B1A6802EA01030BB1012000E00D
:102DF0000020704700F0805119B11449091F086084
:102E000002E011490839486070470146002000225D
:102E100001F080531BB10D4B083B1A6802E00A4BCE
:102E2000083B1A6802EA01030BB1012000E0002010
:102E3000704700F0805119B10449091F086002E091
:102E40000149083948607047080002400804024000
:102E500010B50446FE48844208D10121C014FFF792
:102E600011FC0021E014FFF70DFCC4E0B4F1804F29
:102E700008D101210846FFF712FC00210120FFF7CD
:102E80000EFCB8E0F348844208D101210220FFF78C
:102E900006FC00210220FFF702FCACE0EE48844271
:102EA00008D101210420FFF7FAFB00210420FFF7DD
:102EB000F6FBA0E0E948844208D101210820FFF791
:102EC000EEFB00210820FFF7EAFB94E0E44884428F
:102ED00008D101211020FFF7E2FB00211020FFF7AD
:102EE000DEFB88E0DF48844208D101212020FFF783
:102EF000D6FB00212020FFF7D2FB7CE0DA48844299
:102F000008D101214014FFF7BDFB00216014FFF739
:102F1000B9FB70E0D548844209D10121C804FFF70C
:102F2000B1FB00214FF40020FFF7ACFB63E0D04879
:102F3000844209D101210805FFF7A4FB00214FF4C9
:102F40008010FFF79FFB56E0CA48844209D1012157
:102F50004805FFF797FB00214FF40010FFF792FBA5
:102F600049E0C548844208D101214020FFF797FB82
:102F700000214020FFF793FB3DE0C048844208D188
:102F800001218020FFF78BFB00218020FFF787FBCA
:102F900031E0BB48844208D101218015FFF77FFB57
:102FA0000021A015FFF77BFB25E0B648844209D13C
:102FB00001210804FFF766FB00214FF48030FFF782
:102FC00061FB18E0B048844209D101214804FFF7B1
:102FD00059FB00214FF40030FFF754FB0BE0AB48E6
:102FE000844208D101218804FFF74CFB00214FF4F3
:102FF0008020FFF747FB10BD00220288944B9842C7
:103000000ED0994B98420BD0B0F1804F08D0914B25
:10301000984205D0904B984202D0904B984204D1F0
:103020004FF68F731A404B881A438D4B984207D046
:103030008C4B984204D04FF6FF431A40CB881A437A
:1030400002808B8883850B880385814B98420BD047
:10305000854B984208D08B4B984205D08A4B9842BA
:1030600002D08A4B984201D10B7A038601238382D6
:10307000704770B5002400220023058C4FF6FE76C1
:1030800035400584028C8388048B4FF68F752C4065
:10309000B51E2C400D882C43751E2A400D892A43ED
:1030A0004D882A436A4DA8420BD06F4DA84208D0E4
:1030B000744DA84205D0744DA84202D0734DA84269
:1030C00013D14FF6F7752A404D892A434FF6FB7509
:1030D0002A408D882A434FF6FF652B404FF6FF5557
:1030E0002B408D892B43CD892B4383800483CD884E
:1030F0008586028470BD70B5002400220023058CF3
:103100004FF6EF7635400584028C8388048B48F6B1
:10311000FF752C404FF6FF452C400D884FF6FF768B
:1031200006EA05252C434FF6DF752A400D8906EA8D
:1031300005152A434D8806EA05152A43444DA84241
:1031400002D0494DA8421DD14FF67F752A404D89C6
:103150004FF6FF7606EA05152A434FF6BF752A405B
:103160008D8806EA05152A434FF6FF352B404FF2AE
:10317000FF752B408D8906EA85052B43CD8906EA2C
:1031800085052B4383800483CD880587028470BD29
:1031900070B5002400220023058C4FF6FF663540F1
:1031A0000584028C8388848B4FF68F752C404FF6F4
:1031B000FC752C400D882C434FF6FF552A400D8995
:1031C0004FF6FF7606EA05252A434D8806EA0525CF
:1031D0002A431F4DA84202D0234DA8421DD14FF2D1
:1031E000FF752A404D894FF6FF7606EA05252A43EA
:1031F0004FF6FF352A408D8806EA05252A434EF60C
:10320000FF752B404DF6FF752B408D8906EA05159D
:103210002B43CD8906EA05152B4383808483CD8813
:103220008587028470BD70B5002200230024058CC0
:103230004EF6FF7635400584038C8488828B48F6F1
:10324000FF752A404FF6FF452A400D8820E0000018
:10325000002C01400004004000080040000C004029
:10326000001000400014004000340140004C0140B8
:10327000005001400054014000180040001C004074
:10328000002000400040014000440140004801404F
:103290004FF6FF7606EA05252A434DF6FF752B40CB
:1032A0000D8906EA05352B434D8806EA05352B4383
:1032B000FA4DA84202D0FA4DA84208D14BF6FF754C
:1032C0002C408D894FF6FF7606EA85152C438480C5
:1032D0008283CD88A0F84050038470BD828B4FF26A
:1032E000FF331A408283828B4FF6FF7303EA012378
:1032F0001A4382837047F0B50C4615460022002120
:103300000026078C4EF6FF7C07EA0C070784828BA9
:10331000018C4FF6FF7707EA043640F6FF473A4044
:103320004FF6FF7707EA05273A434FF6FF7707EA9C
:1033300003373A43D94FB8420ED0D94FB8420BD0D9
:10334000B0F1804F08D0D74FB84205D0D64FB84221
:1033500002D0D64FB84206D14DF6FF77394046F439
:103360008057394305E047F6FF57394044F480570A
:10337000394382830184F0BD828B4FF6F3731A4088
:103380008283828B0A4382837047F0B50C461546D0
:10339000002200210026078C4FF6FF6C07EA0C077D
:1033A0000784828B018C4FF6FF7707EA04264FF6DD
:1033B0000C773A404FF6FF7707EA03172F433A435B
:1033C000B64FB8420ED0B64FB8420BD0B0F1804FD6
:1033D00008D0B44FB84205D0B34FB84202D0B34F73
:1033E000B84206D14FF6FF57394046F4807739434B
:1033F00005E04FF2FF57394044F480773943828328
:103400000184F0BD028B4FF2FF331A400283028B1E
:103410004FF6FF7303EA01231A4302837047F0B5A6
:103420000C461546002200210026078C4FF6EF7C43
:1034300007EA0C070784028B018C4FF6FF7707EA37
:10344000041640F6FF473A404FF6FF7707EA033786
:103450003A434FF6FF7707EA05273A438F4FB842C2
:103460000ED08F4FB8420BD0B0F1804F08D08D4FA7
:10347000B84205D08C4FB84202D08C4FB84206D12A
:103480004FF6DF77394046F01007394305E04FF635
:103490005F77394044F01007394302830184F0BD5F
:1034A000028B4FF6F3731A400283028B0A430283A6
:1034B0007047F0B50C46154600220021068C4FF6E9
:1034C000FE773E400684028B018C4FF60C7632402C
:1034D0007E1C06EA03162E433243704EB0420ED0D5
:1034E0006F4EB0420BD0B0F1804F08D06D4EB0425D
:1034F00005D06D4EB04202D06C4EB04206D14FF6B0
:10350000FD76314044F00106314305E04FF6F57693
:10351000314044F00106314302830184F0BD70B5AF
:1035200005460C465D4885420ED05D4885420BD06D
:10353000B5F1804F08D05B48854205D05A48854296
:1035400002D05A48854200D100E000BF208850B91F
:103550002389A28861882846FFF7ABFFE1882846C7
:10356000FFF79EFF25E0208804280AD12389A2883E
:1035700061882846FFF753FFE1882846FFF742FF9E
:1035800017E0208808280AD12389A2886188284664
:10359000FFF7FBFEE1882846FFF7EEFE09E02389EE
:1035A000A28861882846FFF7A6FEE1882846FFF733
:1035B00095FE70BD2DE9F04105460C460026012719
:1035C000608808B9022600E00026A088012801D101
:1035D000022700E001272088A0B92389A2886188FA
:1035E0002846FFF766FFE1882846FFF759FF238941
:1035F0003A4631462846FFF712FFE1882846FFF792
:1036000001FF13E02389A28861882846FFF707FF9E
:10361000E1882846FFF7F6FE23893A4631462846D8
:10362000FFF747FFE1882846FFF73AFFBDE8F08142
:103630000A884B881A438B881A43CB881A430B8914
:103640001A434B891A438B891A43A0F844207047C8
:103650004FF6FF71818000210180C180418001729D
:1036600070470021018041808180C18001814181BA
:103670008181C181704700210180418001218180C9
:103680000021C1800181704700210180418081803B
:10369000C18001814181818170470000002C01407F
:1036A000003401400004004000080040000C0040CD
:1036B00021B1028842F00102028004E002884FF644
:1036C000FE731A400280704731B1B0F8442042F4D2
:1036D0000042A0F8442005E0B0F84420C2F30E02F6
:1036E000A0F8442070471AB183890B43838102E01C
:1036F00083898B43838170478182704741EA02034B
:10370000A0F8483070471AB183890B43838102E0E7
:1037100083898B438381704701894FF6F87211408A
:10372000018170470A46002101894FF68F731940C5
:1037300011430181704730B504460D4629462046A5
:10374000FFF7F0FF208940F00700208130BD2DE910
:10375000F04104460D4616461F46602D06D13B46F5
:10376000012231462046FFF75AFE05E03B46012282
:1037700031462046FFF79DFE29462046FFF7D2FF3F
:10378000208940F007002081BDE8F08130B50C466B
:1037900000210189C9B24FF6FF7505EA03251543DB
:1037A00025432943018130BD2DE9F04105460E46F0
:1037B00017469846002443463A4631462846FFF7C6
:1037C000E5FF2C894FF6F870044044F007044FF6EB
:1037D0008F70044044F070042C81BDE8F081F0B596
:1037E00004460D4616461F463B46324629462046AD
:1037F000FFF7CCFF208940F480402081F0BD018597
:10380000828270470A46002101884FF68F73194063
:10381000114301807047F0B50C4615461E46002145
:10382000002200230189028B038C4FF6F877394080
:1038300021434FF6FC473A4040F201173A434FF616
:10384000DD773B404FF6FF7707EA06172F433B43F0
:10385000018102830384F0BD0A460021018B4FF6EB
:103860008F7319401143018370470A460021018B71
:1038700048F6FF7319404FF6FF7303EA022319431A
:10388000018370470A460021818B4FF68F731940E0
:103890001143818370470A460021818B48F6FF73EC
:1038A00019404FF6FF7303EA0223194381837047DF
:1038B00021B1028842F08002028004E002884FF6C3
:1038C0007F731A400280704721B1828842F004025F
:1038D000828004E082884FF6FB731A408280704732
:1038E00021B1828842F00802828004E082884FF68B
:1038F000F7731A408280704721B1828842F001023A
:10390000828004E082884FF6FE731A4082807047FE
:103910000A460021018B4FF6F773194011430183CA
:1039200070470A460021018B4FF2FF7319404FF692
:10393000FF7303EA02231943018370470A460021FB
:10394000818B4FF6F77319401143818370470A4604
:103950000021818B4FF2FF7319404FF6FF7303EA8A
:1039600002231943818370470A460021018B4FF6D9
:10397000FB7319401143018370470A460021018BF4
:103980004FF6FF3319404FF6FF7303EA0223194342
:10399000018370470A460021818B4FF6FB73194063
:1039A0001143818370470A460021818B4FF6FF3314
:1039B00019404FF6FF7303EA0223194381837047CE
:1039C0000A460021018B4FF67F7319401143018392
:1039D00070470A460021018BC1F30E014FF6FF73B9
:1039E00003EA02231943018370470A460021818BB1
:1039F0004FF67F7319401143818370470A460021B7
:103A0000818BC1F30E014FF6FF7303EA02231943C2
:103A1000818370470A460021018C4FF6FD731940DF
:103A20001143018470470A460021018C4FF6F77359
:103A300019401143018470470A460021018C4FF65A
:103A4000DF7319404FF6FF7303EA02131943018431
:103A500070470A460021018C4FF67F7319404FF6DC
:103A6000FF7303EA02131943018470470A460021D9
:103A7000018C4FF6FF5319404FF6FF7303EA022300
:103A80001943018470470A460021018C4FF2FF73ED
:103A900019404FF6FF7303EA02231943018470476C
:103AA0000A460021018C4DF6FF7319404FF6FF7353
:103AB00003EA023319430184704730B5002301241F
:103AC0008C40A3B2048C9C430484048C02FA01F55C
:103AD000ADB22C43048430BD30B5002304248C40A7
:103AE000A3B2048C9C430484048C02FA01F5ADB2A9
:103AF0002C43048430BD70B50346002000241846D2
:103B0000183001258D40ACB21D8CA5431D8409B130
:103B1000082909D100EB6100056825F070050560F2
:103B20000568154305600EE00D1FC5F34E052844DA
:103B3000056825F4E045056005684FF6FF7606EA5E
:103B400002263543056070BD21B1028842F00202B1
:103B5000028004E002884FF6FD731A40028070472D
:103B600021B1028842F00402028004E002884FF68C
:103B7000FB731A400280704721B1828842F08002B4
:103B8000828004E082884FF67F731A4082807047FB
:103B900002884FF6F7731A40028002880A430280B7
:103BA000704782884FF68F731A40828082880A435A
:103BB0008280704702894FF6F8731A4002810289A9
:103BC0000A430281704702894FF67F731A400281CF
:103BD00002890A430281704781847047818570475A
:103BE000818670470187704781877047A0F8401031
:103BF000704702884FF6FF431A40028002880A434A
:103C0000028070470146888E70470146088F7047D2
:103C10000146888F70470146B1F840007047014661
:103C2000888C70470146088D704702460020138A31
:103C30000B400BB1012000E000207047CA43028214
:103C4000704730B50246002000230024158A05EA9B
:103C50000103958905EA010413B10CB1012000E0CC
:103C6000002030BDCA430282704700000020444952
:103C70000860091D0860091D0860091D08604148A9
:103C80003F4914310860704700213D498279002A7C
:103C90003AD00A46126803689A430B461A600A1D16
:103CA000126803689A430B1D1A60027911440A686E
:103CB00003681A430A60324A0832126803689A435A
:103CC0002F4B08331A601A1D126803689A432C4B55
:103CD0000C331A604279102A0ED11A1F1268036839
:103CE0001A43274B08331A601A1D126803681A43D7
:103CF000234B0C331A600DE02149427911440A68C4
:103D000003681A430A6005E0027911440A680368EF
:103D10009A430A6070470021016001710C214171D2
:103D20000021817170471649103109680143144A16
:103D300010321160704701460020114A1432126897
:103D40000A400AB1012000E0002070470C491431FC
:103D500008607047014600200022094B1B6803EAF7
:103D60000102074B14331B680B4013B10AB1012049
:103D700000E00020704702491431086070470000DD
:103D800000040140FFFF0F0010B50446FA488442CA
:103D900008D101214015FEF775FC00216015FEF7E2
:103DA00071FC17E0F548844208D101210015FEF7A7
:103DB00069FC00212015FEF765FC0BE0F048844209
:103DC00008D10121C803FEF75DFC00214FF400403B
:103DD000FEF758FC10BD30B50246002000235068A5
:103DE000E84C20400D790C6844EA052420435060DB
:103DF0009068E54C2040D1E902542C434D7944EAC7
:103E0000450420439060D06A20F470000C7C641E4E
:103E1000E4B2234340EA0350D06230BD0021016088
:103E2000017141718160C16001210174704721B14C
:103E3000826842F00102826003E0826822F001029F
:103E40008260704721B1826842F48072826003E030
:103E5000826822F480728260704710B50023CBB272
:103E60001AB144681C43446002E044689C434460C7
:103E700010BD816841F00801816070470146002053
:103E80008A6802F008020AB1012000E000207047B1
:103E9000816841F0040181607047014600208A6812
:103EA00002F004020AB1012000E00020704721B1B5
:103EB000826842F4A002826003E0826822F4A002D9
:103EC00082607047014600208A6802F480020AB1CD
:103ED000012000E00020704710B50A4600210023B1
:103EE000416821F46041531E41EA4331416010BDF5
:103EF00021B1426842F40062426003E0426822F469
:103F0000006242607047F0B504460D460020002173
:103F1000092D11DDE068A5F10A0606EB4607072624
:103F200006FA07F18843A5F10A0606EB460603FAEE
:103F300006F10843E0600CE0206905EB4507072621
:103F400006FA07F1884305EB450603FA06F1084334
:103F50002061072A0FDA606B561E06EB86071F26C4
:103F600006FA07F18843561E06EB860605FA06F1A7
:103F70000843606322E00D2A0FDA206BD61F06EBA0
:103F800086071F2606FA07F18843D61F06EB86062A
:103F900005FA06F10843206310E0E06AA2F10D067D
:103FA00006EB86071F2606FA07F18843A2F10D06E5
:103FB00006EB860605FA06F10843E062F0BD21B182
:103FC000826842F48012826003E0826822F48012E8
:103FD000826070470146C86C80B2704766484C30BA
:103FE0000068704721B1426842F48062426003E099
:103FF000426822F480624260704721B1426842F414
:104000008052426003E0426822F48052426070476E
:104010000A460021816821F4E04111438160704724
:1040200021B1826842F40042826003E0826822F497
:1040300000428260704721B1826842F402128260BD
:1040400003E0826822F40212826070470146002079
:104050008A6802F400120AB1012000E000207047D3
:10406000F0B504461546002000220026092911DD7E
:10407000E068A1F10A0707EB470C072707FA0CF2E3
:104080009043A1F10A0707EB470703FA07F2104331
:10409000E0600CE0206901EB410C072707FA0CF205
:1040A000904301EB410703FA07F210432061A06B34
:1040B000C0F30156EF1C06F1010CA7EB0C0707EB50
:1040C000870C1F2707FA0CF29043EF1C06F1010C36
:1040D000A7EB0C0707EB870701FA07F21043A06371
:1040E000F0BD10B50A4600210023816B21F4401178
:1040F000531E41EA0351816310BD08B500230093AC
:104100000090009B0B440093009B1A6008BD08B50B
:10411000024600200090009201F12800009B184404
:1041200000900098006880B208BD0A4600214168EE
:10413000164B1940114341607047416282627047DB
:104140000A460021416821F01F0111434160704778
:1041500040B109490831096841F40001064A0832B2
:10416000116007E004490831096821F40001024A9E
:10417000083211607047000000240140002801400F
:10418000003C0140FFFEF0FFFDF7F1FFFFFD3FFFA8
:104190000246002013680B400BB1012000E0002014
:1041A0007047CA430260704770B502460020002382
:1041B00000240B125568CEB205EA060415681D40AE
:1041C00015B10CB1012000E0002070BD00220A12E0
:1041D000D34303607047000010B50446BE488442D4
:1041E00008D101218014FEF74DFA0021A014FEF73A
:1041F00049FA16E0B948844208D101210014FEF7BB
:104200004EFA00212014FEF74AFA0AE0B44884422C
:1042100007D10121C013FEF742FA0021E013FEF797
:104220003EFA10BD10B50022028802F441520B88FC
:104230004C8823438C882343CC8823430C89234315
:104240004C8923438C892343CC8923431A4302801E
:10425000838B4FF2FF74234083830B8A038210BD4C
:104260002DE9F04F85B005460C464FF000090227B6
:104270004FF000084FF0010B0026B246A88B4FF21A
:1042800040010840A88302202884B5F81C90A0684B
:10429000022801D100BF38E0A08810B94FF0010B0F
:1042A00001E04FF0020B8D48854200D100E000BFD5
:1042B0006846FEF760F9DDF800A0E088B0F5007F01
:1042C0000AD14FEA1A2000EB80004000A168B0FB41
:1042D000F1F0401D86B20BE04FEA4B10BAFBF0F054
:1042E00000EB80004000A168B0FBF1F0401D86B2F9
:1042F0000A20B6FBF0F606F00108A6EB0800C0F3B2
:104300004F074FF6FF7000EA0828022F01DBFF2F4E
:1043100002DD02274FF00008E08840EA0800384339
:104320002884A088A189084361880843218808431C
:1043300040F4006040EA0909A5F81C9005B0BDE80A
:10434000F08F0021018041808180C1800181418105
:104350008181C18107210182704700210180418054
:104360008180C1800221816000218181704721B15B
:10437000028842F04002028004E002884FF6BF73D8
:104380001A400280704721B1828B42F4806282839E
:1043900004E0828B4FF6FF331A408283704730B5BA
:1043A000002400230C110125A540ABB21AB1858869
:1043B0001D43858002E085889D43858030BD1AB10C
:1043C00083880B43838002E083888B43838070471C
:1043D000818170470146888970474FF6FF6291429C
:1043E00004D0028842F48072028004E002884FF612
:1043F000FF631A400280704721B1828842F00402B4
:10440000828004E082884FF6FB731A4082807047F6
:1044100002884FF2FF731A40028002880A4302802A
:104420007047018841F480510180704721B10288B2
:1044300042F40052028004E002884DF6FF731A40F5
:104440000280704702460020012901D0108B00E055
:10445000908A70470146088A7047B1F5804F04D1B1
:10446000028842F48042028004E002884BF6FF7327
:104470001A40028070470246002013890B400BB19E
:10448000012000E000207047CA4302817047F0B568
:104490000246002000240023002501F00F0701261A
:1044A000BE40B4B20B1101269E40B3B2968806EA14
:1044B00003051689264016B10DB1012000E0002049
:1044C000F0BD10B5002201F00F040123A3409AB201
:1044D000D343038110BD000000300140003800408C
:1044E000003C004001460020FE4A106800F0380001
:1044F000084310607047FB49096821F00801F94A38
:10450000116011460968014311607047F549096857
:1045100021F01001F34A116011460968014311604E
:104520007047F148EF494860F04848607047EE48EE
:10453000EC494860ED4848607047EA48006940F03F
:104540008000E84908617047E648006940F0800053
:10455000E449086170470420E249C96801F001019B
:1045600009B101200EE0DF49C96801F0040109B179
:10457000022007E0DB49C96801F0100109B10320FE
:1045800000E00420704700B502460423FFF7E3FF74
:10459000034603E0FFF7DFFF0346521E012B01D164
:1045A000002AF7D102B90523184600BD30B50446EC
:1045B00004254FF43020FFF7E6FF0546042D17D100
:1045C000C848006940F00200C649086108464461D5
:1045D000006940F0400008614FF43020FFF7D3FF3E
:1045E0000546C048006941F6FD710840BD490861B3
:1045F000284630BD10B504244FF43020FFF7C3FF28
:104600000446042C16D1B748006940F00400B549AF
:1046100008610846006940F0400008614FF430200E
:10462000FFF7B1FF0446AF48006941F6FB7108404F
:10463000AC490861204610BD00B502460423FFF7CF
:104640008AFF034603E0FFF786FF0346521E012B55
:1046500001D1002AF7D102B90523184600BD10B5D3
:1046600004244FF43020FFF7E7FF0446042C16D152
:104670009C48006940F004009A49086108460069B6
:1046800040F0400008614FF43020FFF7D5FF0446AA
:104690009448006941F6FB71084092490861204640
:1046A00010BD00208F49C96901F0020109B1012044
:1046B00000E00020704730B5A5250424FFF7F1FF86
:1046C00000B100254FF43020FFF75DFF0446042CB5
:1046D0003AD18548834988608448886008460069E3
:1046E00040F0200008610846006940F04000086181
:1046F0004FF43020FFF747FF0446042C1BD17948C4
:10470000006941F6DF710840764908610846006992
:1047100040F01000086176480580E002FFF733FFA3
:104720000446052C10D06F48006941F6EF7108402F
:104730006C49086108E0052C06D06A48006941F61A
:10474000EF71084067490861204630BD78B50646DC
:104750000C46042500200090E802FFF714FF0546F0
:10476000042D24D15F48006940F001005D490861D3
:104770003480E802FFF707FF0546042D10D1B01C76
:104780000090200C00990880E802FFF7FCFE054627
:104790005448006941F6FE7108405249086106E03C
:1047A0005048006941F6FE7108404E4908612846AC
:1047B00078BD70B504460D460426F002FFF7E3FE0F
:1047C0000646042E11D14748006940F001004549D2
:1047D00008612580F002FFF7D6FE064641480069D1
:1047E00041F6FE7108403F490861304670BD70B522
:1047F00005460E460424E002FFF7C5FE0446042CDD
:1048000017D13948374988603848886008460069B8
:1048100040F0100008612E80E002FFF7B4FE04466D
:10482000052C06D02F48006941F6EF7108402D494C
:104830000861204670BD2DE9F04304464FF6FF762F
:104840003746B046B1460425E443E6B2C4F3072731
:10485000C4F307484FEA1469E802FFF794FE0546DF
:10486000042D49D120481F498860204888600846A7
:10487000006940F010000861FF2E06D01C48083087
:104880000680E802FFF77FFE0546042D08D1FF2FC2
:1048900006D017480A300780E802FFF774FE054685
:1048A000042D0AD1B8F1FF0F07D011480C30A0F841
:1048B0000080E802FFF767FE0546042D0AD1B9F132
:1048C000FF0F07D00A480E30A0F80090E802FFF76B
:1048D0005AFE0546052D0FD00248006941F6EF71DA
:1048E000084007E00020024023016745AB89EFCD77
:1048F00000F8FF1F664908612846BDE8F08330B51F
:10490000054604244FF43020FFF73DFE0446042CF6
:1049100041D160485E4988605F4888600846006908
:1049200040F0200008610846006940F0400008613E
:104930004FF43020FFF727FE0446042C22D15448C0
:10494000006941F6DF710840514908610846006975
:1049500040F0100008611DB100205049088002E0BD
:10496000A5204E4908804FF43020FFF70CFE044686
:10497000052C10D04648006941F6EF7108404449C3
:10498000086108E0052C06D04148006941F6DF7156
:1049900008403F490861204630BDF0B505460E4647
:1049A000174604243B483A4988603B488860E00247
:1049B000FFF7E9FD0446042C19D13548006940F0A1
:1049C00010003349086147F0F80030432843334969
:1049D000891C0880E002FFF7D6FD0446052C06D0AE
:1049E0002B48006941F6EF710840294908612046CB
:1049F000F0BD2748C069800870472548006A7047A5
:104A000000202349096801F0200109B1012000E0DC
:104A10000020704729B11E4A126902431C4B1A61DB
:104A200004E01B4A12698243194B1A617047014620
:104A30000020012908D1164AD26902F001020AB108
:104A4000012008E0002006E0114AD2680A400AB1BD
:104A5000012000E0002070470D49C8607047042025
:104A60000B49C96801F0010109B101200EE00849B4
:104A7000C96801F0040109B1022007E00449C968CE
:104A800001F0100109B1032000E00420704700008C
:104A90000020024023016745AB89EFCD00F8FF1FDE
:104AA00040EA01039B0703D009E008C9121F08C0B0
:104AB000042AFAD203E011F8013B00F8013B521E30
:104AC000F9D2704730B480EA010202F0004530F0BC
:104AD000004221F0004013D090B1C30DD40DC2F3B9
:104AE0001601C0F31600E41A41F4000140F400027C
:104AF0007D34914201D3641C00E04900002C02DAAD
:104B000030BC002070474FF400000023914201D3D5
:104B1000891A034340084FEA4101F7D151B191424C
:104B200002D14FF0004105E002D24FF0010101E057
:104B30006FF0010103EBC450284430BC00F019B8F9
:104B400096230022114600F01DB820F00040C10D50
:104B5000C0F3160040F400007F2901DA00207047FE
:104B6000962903DCC1F19601C84070479639884008
:104B700070470029A8BF7047401C490008BF20F0BB
:104B80000100704710B4B0FA80FC00FA0CF050EA53
:104B9000010404BF10BC704749B1CCF1200421FAD4
:104BA00004F411FA0CF118BF012121430843A3EBCF
:104BB0000C01CB1D4FEA00614FEA102042BF0020DC
:104BC00010BC704700EBC35010440029A4BF10BCB8
:104BD0007047401C490008BF20F0010010BC70471E
:104BE000064C074D06E0E06840F0010394E807003A
:104BF00098471034AC42F6D3FBF79EFAC04E01083A
:104C0000E04E010810B501200949C8700421084888
:104C1000FCF701FAFCF721FA05490871FCF71AFACA
:104C20000349487106210248FBF7F3FD10BD00005F
:104C30001D00002002E008C8121F08C1002AFAD196
:104C400070477047002001E001C1121F002AFBD10C
:104C500070470000F0B50B30154D20F0070100241F
:104C6000144A0FE003688B420BD38B4205D95E1ABE
:104C700043184768C3E9006700E04368136002C057
:104C800004E0021D10680028ECD12046002802D163
:104C9000286808B10020F0BD064A07481060074A9E
:104CA000121A22F00702C0E9002401202860D7E789
:104CB0007800002074000020C45A0020C05C00204E
:104CC00000C1814001C0804101C0804100C18140DC
:104CD00001C0804100C1814000C1814001C08041CC
:104CE00001C0804100C1814000C1814001C08041BC
:104CF00000C1814001C0804101C0804100C18140AC
:104D000001C0804100C1814000C1814001C080419B
:104D100000C1814001C0804101C0804100C181408B
:104D200000C1814001C0804101C0804100C181407B
:104D300001C0804100C1814000C1814001C080416B
:104D400001C0804100C1814000C1814001C080415B
:104D500000C1814001C0804101C0804100C181404B
:104D600000C1814001C0804101C0804100C181403B
:104D700001C0804100C1814000C1814001C080412B
:104D800000C1814001C0804101C0804100C181401B
:104D900001C0804100C1814000C1814001C080410B
:104DA00001C0804100C1814000C1814001C08041FB
:104DB00000C1814001C0804101C0804100C18140EB
:104DC00000C0C101C30302C2C60607C705C5C404AB
:104DD000CC0C0DCD0FCFCE0E0ACACB0BC90908C81B
:104DE000D81819D91BDBDA1A1EDEDF1FDD1D1CDC0B
:104DF00014D4D515D71716D6D21213D311D1D0107B
:104E0000F03031F133F3F23236F6F737F53534F46A
:104E10003CFCFD3DFF3F3EFEFA3A3BFB39F9F838DA
:104E200028E8E929EB2B2AEAEE2E2FEF2DEDEC2CCA
:104E3000E42425E527E7E62622E2E323E12120E03A
:104E4000A06061A163A3A26266A6A767A56564A42A
:104E50006CACAD6DAF6F6EAEAA6A6BAB69A9A8689A
:104E600078B8B979BB7B7ABABE7E7FBF7DBDBC7C8A
:104E7000B47475B577B7B67672B2B373B17170B0FA
:104E800050909151935352929656579755959454EA
:104E90009C5C5D9D5F9F9E5E5A9A9B5B995958985A
:104EA000884849894B8B8A4A4E8E8F4F8D4D4C8C4A
:104EB00044848545874746868242438341818040BA
:104EC000E04E0108000000207C000000344C010886
:104ED0005C4F01087C00002044600000444C010845
:104EE00000A24A04000000000000000001020304C8
:104EF0000607080900000000000000000000000094
:104F000000000000000000000000000000000000A1
:104F10000000000000000000000000000000000091
:104F2000000000001B1D0108411D0108BC050020F8
:104F3000BC55002000000000000000000000000040
:104F40000000010203040102030406070809020429
:0C4F500006080000000000000000000047
:0400000508010131BC
:00000001FF
