:020000040800F2
:10000000A00B0020CD010008F90D0008F909000837
:10001000F50D0008730300085B16000800000000DF
:10002000000000000000000000000000CF0F0008EA
:10003000C303000800000000FB0D0008B114000815
:10004000E7010008E7010008E7010008E7010008F0
:10005000E7010008E7010008E7010008E7010008E0
:10006000E7010008E7010008E7010008E7010008D0
:10007000E7010008E7010008E7010008E7010008C0
:10008000E7010008E7010008E7010008E7010008B0
:10009000E7010008E7010008E7010008E7010008A0
:1000A000E7010008E7010008E7010008E701000890
:1000B000E7010008E7010008E7010008E701000880
:1000C000E7010008E7010008E7010008E701000870
:1000D000E7010008E7010008E7010008E701000860
:1000E000E7010008E7010008E7010008E701000850
:1000F000E7010008E7010008E7010008E701000840
:10010000E7010008E7010008E7010008E70100082F
:10011000E7010008E7010008E7010008E70100081F
:10012000E7010008E7010008E7010008E70100080F
:1001300000F002F800F03AF80AA090E8000C8244BF
:100140008344AAF10107DA4501D100F02FF8AFF29C
:10015000090EBAE80F0013F0010F18BFFB1A43F0A5
:10016000010318471C1D00003C1D0000103A24BF6D
:1001700078C878C1FAD8520724BF30C830C144BF0C
:1001800004680C607047000000230024002500264E
:10019000103A28BF78C1FBD8520728BF30C148BFEA
:1001A0000B6070471FB51FBD10B510BD00F0A8F85B
:1001B0001146FFF7F7FF01F045FD00F0C6F803B464
:1001C000FFF7F2FF03BC00F0CDF8000009488047BC
:1001D00009480047FEE7FEE7FEE7FEE7FEE7FEE729
:1001E000FEE7FEE7FEE7FEE704480549054A064B41
:1001F00070470000B514000831010008A005002078
:10020000A00B0020A0070020A0070020032A40F236
:10021000308010F0030C00F0158011F8013BBCF1A8
:10022000020F624498BF11F801CB00F8013B38BFC0
:1002300011F8013BA2F1040298BF00F801CB38BFCE
:1002400000F8013B11F0030300F02880083AC0F0E9
:10025000088051F8043B083A51F804CBA0E8081094
:10026000F5E7121D5CBF51F8043B40F8043BAFF3C7
:100270000080D20724BF11F8013B11F801CB48BF21
:1002800011F8012B24BF00F8013B00F801CB48BF57
:1002900000F8012B704770477047704710B5203A3F
:1002A000C0F00B80B1E81850203AA0E81850B1E82F
:1002B0001850A0E81850BFF4F5AF5FEA027C24BFE5
:1002C000B1E81850A0E8185044BF18C918C0BDE8DC
:1002D00010405FEA827C24BF51F8043B40F8043BA5
:1002E00008BF7047D20728BF31F8023B48BF11F85A
:1002F000012B28BF20F8023B48BF00F8012B7047B4
:10030000754600F02BF8AE4605006946534620F0CE
:100310000700854618B020B5FFF766FFBDE820400E
:100320004FF000064FF000074FF000084FF0000BB1
:1003300021F00701AC46ACE8C009ACE8C009ACE864
:10034000C009ACE8C0098D46704710B50446AFF34C
:1003500000802046BDE81040FFF731BF00487047DD
:100360004005002001491820ABBEFEE72600020030
:10037000704700BFFEE730B502460023541802E084
:1003800012F8015B2B44A242FAD3D8B230BDF0B5CB
:1003900005460E460024AF1905E015F8011BA0B272
:1003A00001F042F90446BD42F7D3A0B2002101F0AA
:1003B0003BF904462046002101F036F90446204668
:1003C000F0BD70472DE9F0470024002501260227E3
:1003D0004FF004084FF0010900F0ACF90546314830
:1003E000006828402F490968884255D000F09CF9E0
:1003F00004462C48006828432A49086000F0F4F8B5
:10040000814628480068401C28B126480068C0433F
:1004100000F088F8814604F00700072811D004F0A6
:10042000010000B9002604F0020000B9002704F022
:10043000040008B94FF0000842463946304600F043
:10044000CDF9B9F1040F23D117A000F02FFF1E48FA
:1004500000F02CFF00BF00BF00BF00BF00BFBFF314
:100460004F8F00BF00BF00BF1848006800F4E06075
:1004700017490843001D1549086000BF00BF00BFB1
:10048000BFF34F8F00BF00BF00BF00BF00BFFDE73D
:1004900010A000F00BFF02E019A000F007FFBDE87C
:1004A000F0870000240000205772697465205072A4
:1004B0006F74656374696F6E2064697361626C65E3
:1004C000642E2E2E0D0A0000E01D00080CED00E049
:1004D0000000FA054572726F723A20466C617368CB
:1004E00020777269746520756E70726F74656374BD
:1004F000696F6E206661696C65642E2E2E0D0A0090
:10050000466C617368206D656D6F7279206E6F74D3
:100510002077726974652070726F746563746564A6
:100520000D0A00002DE9F04304464FF6FF763746EA
:10053000B046B1460425E443E6B2C4F30727C4F34A
:1005400007484FEA1469E80200F07CF90546042DDB
:100550003FD12148214988602148886008460069C8
:1005600040F010000861FF2E05D01E480680E8020A
:1005700000F068F90546042D08D1FF2F06D0194870
:10058000801C0780E80200F05DF90546042D0AD1C1
:10059000B8F1FF0F07D01348001DA0F80080E80253
:1005A00000F050F90546042D0AD1B9F1FF0F07D02C
:1005B0000C48801DA0F80090E80200F043F90546C1
:1005C000052D06D00548006941F6EF710840034942
:1005D00008612846BDE8F0832301674500200240FA
:1005E000AB89EFCD08F8FF1F30B5A525042400F036
:1005F0008FF800B100254FF4302000F023F90446B5
:10060000042C3AD11E481F4988601F48886008465C
:10061000006940F0200008610846006940F0400091
:1006200008614FF4302000F00DF90446042C1BD172
:100630001448006941F6DF71084012490861084614
:10064000006940F01000086110480580E00200F0E9
:10065000F9F80446052C10D00A48006941F6EF71FC
:1006600008400849086108E0052C06D005480069E3
:1006700041F6EF71084003490861204630BD000093
:100680002301674500200240AB89EFCD00F8FF1F32
:1006900030B5044604254FF4302000F0D3F8054669
:1006A000042D17D10C48006940F002000A49086186
:1006B00008464461006940F0400008614FF4302072
:1006C00000F0C0F805460448006941F6FD71084095
:1006D00001490861284630BD0020024004200B4932
:1006E000C96801F0010109B101200EE00749C9689C
:1006F00001F0040109B1022007E00449C96801F0D2
:10070000100109B1032000E00420704700200240DE
:1007100000200449C96901F0020109B1012000E08B
:1007200000207047002002400148C06980087047DF
:10073000002002400148006A70470000002002408B
:1007400001B500200099C1F30A021AB1012202EB9F
:10075000D12000E0C80A08BD78B506460C4604253D
:1007600000200090E80200F06DF80546042D24D129
:100770001348006940F00100114908613480E80223
:1007800000F060F80546042D10D1B01C0090200C3C
:1007900000990880E80200F055F80546084800690D
:1007A00041F6FE7108400649086106E00448006908
:1007B00041F6FE71084002490861284678BD0000F4
:1007C00000200240024803494860034848607047DF
:1007D0002301674500200240AB89EFCDF0B5054607
:1007E0000E4617460424134813498860134888604E
:1007F000E00200F027F80446042C18D10E480069E6
:1008000040F010000C49086147F0F80030432843DD
:100810000B490880E00200F015F80446052C06D0CC
:100820000548006941F6EF71084003490861204618
:10083000F0BD00002301674500200240AB89EFCDE9
:1008400002F8FF1F00B502460423FFF747FF0346E7
:1008500003E0FFF743FF0346521E012B01D1002A9C
:10086000F7D102B90523184600BD000008B50121E3
:1008700044F2040000F0C2FA4FF40070ADF800003A
:1008800018208DF8030003208DF802006946074800
:1008900000F00EF84FF48060ADF8000004208DF8F1
:1008A00003006946014800F003F808BD0008014054
:1008B0002DE9F041024600250026002000230024F7
:1008C000002791F803C00CF00F0591F803C00CF05D
:1008D000100CBCF1000F03D091F802C04CEA0505E2
:1008E00091F800C0BCF1000F31D0146800202BE05B
:1008F0004FF0010C0CFA00F3B1F800C00CEA03064B
:100900009E4220D183004FF00F0C0CFA03F7BC433A
:1009100005FA03FC4CEA040491F803C0BCF1280F6B
:1009200006D14FF0010C0CFA00FCC2F814C00AE02A
:1009300091F803C0BCF1480F05D14FF0010C0CFA3F
:1009400000FCC2F810C0401C0828D1D31460B1F8D4
:1009500000C0BCF1FF0F34DD546800202EE000F130
:10096000080C4FF0010808FA0CF3B1F800C00CEACB
:1009700003069E4221D183004FF00F0C0CFA03F7BF
:10098000BC4305FA03FC4CEA040491F803C0BCF133
:10099000280F05D100F1080C08FA0CF8C2F81480F1
:1009A00091F803C0BCF1480F07D100F1080C4FF0DB
:1009B000010808FA0CF8C2F81080401C0828CED3B1
:1009C0005460BDE8F0810246002093680B400BB1F3
:1009D000012000E0002070474161704708B5002009
:1009E000009004E0684600F0C3FB00B100E0F9E7C6
:1009F00000BF9DF8000008BD04A000F057FC03E014
:100A00000F210648FFF7E8FFFAE700004552524F72
:100A1000522121212121200A0D000000001801404F
:100A20001FB54FF4E13000900020ADF80400ADF8A0
:100A30000600ADF80800ADF80C000C20ADF80A0077
:100A4000FFF714FF6946044800F07EFD01210248CB
:100A500000F060FD1FBD000000380140F0B5144AF1
:100A600000250024002320E0B1FBF2F6303606F02A
:100A7000FF0C2E466D1C00F806C0B1FBF2F602FB1F
:100A800016110A26B2FBF6F26E1E865D302E01D1DB
:100A9000012600E000260CB9012700E000273E40B7
:100AA0000EB1002500E0641C5B1C0A2BDCD3F0BDFA
:100AB00000CA9A3B08B50121102000F09FF92820B8
:100AC0008DF803001020ADF8000069460148FFF7DB
:100AD000EFFE08BD0010014000243A480068A0F174
:100AE0000060000B38490860084600683E2808D2BC
:100AF0000846017801208840401EC0433349086001
:100B000003E04FF0004031490860FFF713FE2F4922
:100B1000096808402D490968884203D001202C4902
:100B2000086002E000202A4908604AE029A000F09D
:100B3000BDFB38A000F0BAFB46A000F0B7FB55A003
:100B400000F0B4FB2248006810B162A000F0AEFBD8
:100B500070A000F0ABFBFFF741FF0446312C02D13F
:100B600000F03EFA2DE0322C02D100F023FB28E009
:100B7000332C13D177A000F099FB7C4840687C4966
:100B80000860084600687B4908607849086880F377
:100B9000088800BF77480068804712E0342C06D1EF
:100BA0000B480068012802D1FFF70CFC09E0084857
:100BB000006818B970A000F079FB02E07DA000F099
:100BC00075FBB3E700000020200000202400002077
:100BD000280000200D0A3D3D3D3D3D3D3D3D3D3D54
:100BE0003D3D3D3D3D3D3D3D204D61696E204D65A6
:100BF0006E75203D3D3D3D3D3D3D3D3D3D3D3D3DD9
:100C00003D3D3D3D3D3D3D3D3D3D3D3D3D3D3D0D44
:100C10000A0A00002020446F776E6C6F61642049DF
:100C20006D61676520546F207468652053544D339F
:100C3000324631307820496E7465726E616C2046A0
:100C40006C617368202D2D2D2D2D2D2D20310D0A39
:100C50000A000000202055706C6F616420496D61AE
:100C600067652046726F6D207468652053544D335C
:100C7000324631307820496E7465726E616C204660
:100C80006C617368202D2D2D2D2D2D2D20320D0AF8
:100C90000A0000002020457865637574652054685B
:100CA00065204E65772050726F6772616D202D2D23
:100CB0002D2D2D2D2D2D2D2D2D2D2D2D2D2D2D2D64
:100CC0002D2D2D2D2D2D2D2D2D2D2D2D20330D0A9E
:100CD0000A000000202044697361626C652074681A
:100CE000652077726974652070726F7465637469CA
:100CF0006F6E202D2D2D2D2D2D2D2D2D2D2D2D2DAE
:100D00002D2D2D2D2D2D2D2D2D2D2D2D20340D0A5C
:100D10000A0000003D3D3D3D3D3D3D3D3D3D3D3DED
:100D20003D3D3D3D3D3D3D3D3D3D3D3D3D3D3D3DF3
:100D30003D3D3D3D3D3D3D3D3D3D3D3D3D3D3D3DE3
:100D40003D3D3D3D3D3D3D3D3D3D3D3D3D3D0D0A36
:100D50000A000000457865637574652075736572D7
:100D60002050726F6772616D0D0A0A000000010861
:100D70001C00002018000020496E76616C69642018
:100D80004E756D6265722021203D3D3E20546865A0
:100D9000206E756D6265722073686F756C64206279
:100DA000652065697468657220312C2032206F726D
:100DB00020330D00496E76616C6964204E756D625A
:100DC00065722021203D3D3E20546865206E756D82
:100DD0006265722073686F756C6420626520656956
:100DE0007468657220312C20322C2033206F7220E1
:100DF000340D000000BFFEE77047704729B1064A76
:100E000092690243044B9A6104E0034A9269824367
:100E1000014B9A61704700000010024030B500217C
:100E20000022002400232D4D6D6805F00C0121B136
:100E3000042905D0082923D105E0294D056022E0C9
:100E4000274D05601FE0254D6D6805F47012234D98
:100E50006D6805F48034022505EB92421CB9214DE2
:100E6000554305600BE01D4D6D6805F400351DB15F
:100E70001C4D5543056002E0194D5543056002E0E5
:100E8000174D056000BF00BF144D6D6805F0F001FF
:100E90000909154D6B5C0568DD4045600F4D6D68B7
:100EA00005F4E061090A104D6B5C4568DD40856022
:100EB0000A4D6D6805F46051C90A0B4D6B5C4568BD
:100EC000DD40C560054D6D6805F44041890B074D57
:100ED0006B5CC568B5FBF3F5056130BD00100240E1
:100EE00000127A0000093D002C0000203C00002088
:100EF00070B505460C4606E0284600F039F9012891
:100F000001D1002070BD201EA4F10104F4D1401EC7
:100F1000F8E72DE9F84304460D4690460020286086
:100F200041466846FFF7E4FF18B14FF0FF30BDE8D7
:100F3000F8839DF80000182813D006DC012809D09A
:100F4000022809D0042820D109E041281AD06128BC
:100F50001BD118E080271BE04FF4806718E00020C9
:100F6000E5E741466846FFF7C3FF40B99DF800003A
:100F7000182804D14FF0FF3028600020D7E74FF049
:100F8000FF30D4E700BF0120D1E74FF0FF30CEE7BC
:100F900000BF9DF800002070012609E0A01941461D
:100FA000FFF7A6FF10B14FF0FF30C0E7701C86B20C
:100FB000781D8642F2DB6178A07880F0FF008142E4
:100FC00002D04FF0FF30B2E72F600020AFE770474C
:100FD00010B50446204600F0DDF8002010BD0000EA
:100FE0003EB51DA207CA8DE8070000241DA000F031
:100FF0005DF92B4800F0B2FB0446002C16DD2948B1
:1010000000F054F9284800F051F921466846FFF7EE
:1010100025FD26A000F04AF9684600F047F926A011
:1010200000F044F927A000F041F914E0601C18B961
:101030002AA000F03BF90EE0A01C18B937A000F080
:1010400035F908E0E01C18B93BA000F02FF902E0E8
:101050003FA000F02BF93EBD2020202020202020A2
:101060002020000057616974696E6720666F7220E6
:101070007468652066696C6520746F2062652073F2
:10108000656E74202E2E2E202870726573732027B3
:10109000612720746F2061626F7274290A0D00004D
:1010A000400100202C1E0008400000200A0D2053A3
:1010B000697A653A200000002042797465730D0A50
:1010C000000000002D2D2D2D2D2D2D2D2D2D2D2D04
:1010D0002D2D2D2D2D2D2D0A000000000A0A0D5456
:1010E000686520696D6167652073697A6520697339
:1010F00020686967686572207468616E207468652D
:1011000020616C6C6F776564207370616365206D1E
:10111000656D6F7279210A0D000000000A0A0D56F4
:101120006572696669636174696F6E206661696C76
:101130006564210A0D0000000D0A0A41626F727495
:10114000656420627920757365722E0A0D000000B7
:101150000A0D4661696C656420746F207265636571
:10116000697665207468652066696C65210A0D00E2
:1011700010B504462021064800F0D8F928B10448EB
:10118000001D00882070012010BD0020FCE7000039
:101190000038014010B504462146054800F040FAE9
:1011A00000BF8021024800F0C1F90028F9D010BD2D
:1011B0000038014010B500240DA000F077F8FFF7CB
:1011C0000DFC43280FD14FF4E02217A11C4800F07A
:1011D00001FC04461CB11BA000F068F806E024A046
:1011E00000F064F802E02BA000F060F810BD0000F1
:1011F0000A0A0D53656C65637420526563656976F0
:10120000652046696C65202E2E2E2028707265732D
:101210007320616E79206B657920746F2061626F35
:101220007274290A0D00000055706C6F616465646A
:10123000466C617368496D6167652E62696E000076
:10124000000001080A0D4572726F72204F636375CA
:10125000726564207768696C65205472616E736D85
:10126000697474696E672046696C650A0D00000038
:101270000A0D46696C6520547261736D69747465FA
:1012800064205375636365737366756C6C79200AAB
:101290000D0000000D0A0A41626F727465642062DD
:1012A0007920757365722E0A0D00000010B5044692
:1012B00003E02078FFF76EFF641C20780028F8D147
:1012C00010BD10B500F002F810BD00000CB50020F4
:1012D000019000903348006840F480303149086044
:1012E00000BF3048006800F4003000900198401CB6
:1012F0000190009818B90198B0F5A06FF1D1294874
:10130000006800F4003010B10120009001E00020DE
:1013100000900098012843D12348006840F0100055
:10132000214908600846006820F00300086008466C
:10133000006840F0020008601A4840681949486097
:101340000846406848600846406840F4806048604D
:101350000846406820F47C1048600846406840F425
:10136000E81048600846006840F08070086000BFE0
:101370000C48006800F000700028F9D00948406867
:1013800020F00300074948600846406840F002002A
:10139000486000BF0348406800F00C000828F9D1FD
:1013A0000CBD0000001002400020024070B5024653
:1013B0000C460021002500231078302843D15078B6
:1013C000782802D0507858283DD1907808B900206C
:1013D00070BD022130E0505C10B9236001252DE082
:1013E000505C412802DB505C46280BDD505C6128D4
:1013F00002DB505C662805DD505C302819DB505C50
:10140000392816DC505C302805DB505C392802DCBA
:10141000505C30380AE0505C412805DB505C4628BF
:1014200002DC505C373801E0505C573800EB0313A6
:1014300001E0002502E0491C0B29CCD300BF0B2999
:1014400034D3002532E000212AE0505C10B923603B
:10145000012527E0505C6B2802D0505C4B2804D15A
:1014600019B19B02236001251CE0505C6D2802D05D
:10147000505C4D2804D119B11B052360012511E0F2
:10148000505C302809DB505C392806DC505C303871
:1014900003EB830600EB460301E0002502E0491C54
:1014A0000B29D2D300BF0B2900D3002528468FE794
:1014B0007047000010B51348006840F00100114962
:1014C000086008464068104908400E4948600846D0
:1014D00000680E4908400B4908600846006820F47F
:1014E000802008600846406820F4FE0048604FF401
:1014F0001F008860FFF7E5FE4FF0006004490860B8
:1015000010BD0000001002400000FFF8FFFFF6FED3
:1015100008ED00E021B1828942F40052828104E0AA
:1015200082894DF6FF731A4082817047024600207F
:10153000B1F5007F00D100BF13880B400BB1012033
:1015400000E00020704700002DE9F04786B0054616
:101550000E460024A24600BFA1460027B08900B174
:1015600000BF2F462C8A4CF6FF700440F0880443DD
:101570002C82AC894EF6F3100440B08831890843C0
:10158000718908430443AC81AC8A4FF6FF400440A4
:10159000B0890443AC8201A8FFF740FC1F48874292
:1015A00002D1DDF810A001E0DDF80CA0A88900F45C
:1015B000004040B10AEBCA0000EB0A103168490054
:1015C000B0FBF1F807E00AEBCA0000EB0A10316843
:1015D0008900B0FBF1F86420B8FBF0F004012009A9
:1015E000642101FB1089A88900F4004040B1322039
:1015F00000EBC900B0FBF1F000F00700044308E085
:10160000322000EB09106421B0FBF1F000F00F0074
:1016100004432C8106B0BDE8F0870000003801408B
:10162000C1F308028280704710B503460C46194684
:1016300044F4807200BF4900520002F4807000B18F
:10164000491C01F4803010B141F22100414002F404
:1016500080300028EFD088B210BD00BFFEE72DE932
:10166000FE4305460F469046012028700020687012
:10167000FF20A870002404E0395DE01C2954601CA0
:1016800084B2385D08B1FF2CF6DD0021E01C29543E
:101690006846D8F80010FFF7E1F90026201D84B253
:1016A00008E03046711C8EB21DF800202046611CF7
:1016B0008CB22A541DF806000028F2D1264603E019
:1016C0000020A855701C86B2832EF9DBBDE8FE838E
:1016D000F0B5074614461D46B5F5806F02D34FF4AA
:1016E000806C01E04FF0800C63469D4201D2AC4615
:1016F00000E09C461FFA8CF2B3F5806F04D14FF0E6
:10170000020C81F800C003E04FF0010C81F800C02A
:101710004C706FEA040C81F802C03E46032007E0DB
:1017200016F801CB01F800C000F1010C1FFA8CF093
:1017300002F1030C6045F3DB9A420EDC1FFA8CF0D9
:1017400007E04FF01A0C01F800C000F1010C1FFA7D
:101750008CF003F1030C6045F3DBF0BD2DE9F04F95
:10176000ADF22C4D0646002001908B488B49086055
:101770004FF0000B4FF0000A0020029000BF00273E
:1017800000200390B04600BF4FF4801204A909A8BE
:10179000FFF7BFFB10B101287ED1D0E04FF0000A67
:1017A0000498B0F1FF3F01D070B907E00620FFF7C1
:1017B0000FFC00200DF22C4DBDE8F08F0620FFF746
:1017C00007FC01200390B8E09DF82500F9B288429B
:1017D00003D01520FFF7FCFBAFE0002F6ED19DF882
:1017E0002700002863D000250DF1270405E014F838
:1017F000012B28466D1C6A490A54207808B1FF2D38
:10180000F5DD002228466D1C65490A540025641C3C
:1018100005E014F8012B28466D1C05A90A54207810
:10182000202801D0102DF4DB002228466D1C05A9CC
:101830000A5401A905A8FFF7B9FD0198B0F5002FDA
:1018400008DB1820FFF7C4FB1820FFF7C1FB4FF09F
:10185000FF30AFE70198FEF773FF524908600020A0
:101860005149086010E04D490968504A12884E4BB2
:101870001B6802FB0310FEF70BFF4D4908704A4836
:101880000068401C484908604748006845490968A5
:10189000884205D2464800E05AE000780428E2D0A9
:1018A0000620FFF795FB4320FFF792FB42E006205E
:1018B000FFF78EFB0120039083463EE00DF12701E8
:1018C0004046049AFEF7A2FC3A4806604FF0000931
:1018D00023E038480068016830480068FEF73CFFA4
:1018E0002E4800680068334909680968884208D0B2
:1018F0001820FFF76DFB1820FFF76AFB6FF001005F
:1019000058E726480068001D2449086029480068F7
:10191000001D2849086009F104090498814506DA88
:101920001D49019808441D4909688842D1D80620FC
:10193000FFF74EFB7F1C0120029000BF1CE0182027
:10194000FFF746FB1820FFF743FB6FF0020031E77B
:101950000298002801DD0AF1010ABAF1050F07DD3E
:101960001820FFF735FB1820FFF732FB002021E796
:101970004320FFF72DFB00BF00BF039800283FF472
:1019800003AF00BF00BFBBF1000F3FF4F8AE00BFD4
:1019900000BF01980EE700000000010800000020D1
:1019A000400000200C00002008000020040000205F
:1019B000100000201400002070B505460E460024DB
:1019C00004E0285DFFF704FB601C84B2B442F8DB3E
:1019D00070BD00002DE9F74FADF5A36D002001901B
:1019E000814600248046002606E0DDF81C05805D67
:1019F00004A98855701CC6B2FF2EF6DB01200190A9
:101A00000DF5A46204A944A8FFF729FE00BF8321B5
:101A100044A8FFF7D1FF019860B180210DF21310A7
:101A2000FEF7B5FC05462812FFF7D2FAE8B2FFF739
:101A3000CFFA08E080210DF21310FEF79CFC039012
:101A40000398FFF7C5FA42F2107102A8FFF750FAA7
:101A500030B99DF80800062803D14FF0010800E0D6
:101A6000641CB8F1000F01D10A2CD0D30A2C04D386
:101A7000E0B20DF2245DBDE8F08FDDF818A5DDF8C9
:101A800020954FF0010B59E00BF0FF024B4644A9A3
:101A90005046FFF71DFE4FF0000800208DF80800AB
:101AA000002400BFB9F5806F02D34FF4806700E0D7
:101AB0008027F81C81B244A8FFF77EFF019860B12F
:101AC00039460DF21310FEF762FC05462812FFF7A7
:101AD0007FFAE8B2FFF77CFA08E039460DF21310FE
:101AE000FEF749FC03900398FFF772FA544902A8E5
:101AF000FFF7FEF9C0B99DF80800062814D14FF091
:101B00000108B9450CD9BA44A9EB0709BBF5E07F38
:101B100001D1FF20ADE70BF101001FFA80FB04E0CB
:101B2000BA444FF0000900E0641CB8F1000F01D185
:101B30000A2CB7D30A2C01D3E0B29AE7B9F1000F0F
:101B4000A2D14FF0000800208DF80800002400BF4B
:101B50000420FFF73DFA42F2107102A8FFF7C8F91E
:101B600030B99DF80800062802D14FF0010800E0C6
:101B7000641CB8F1000F01D10A2CE9D30A2C01D35F
:101B8000E0B276E74FF0000800208DF8080000244E
:101B900001208DF8100100208DF81101FF208DF833
:101BA0001201032604E0002044A98855701CC6B227
:101BB000832EF8DB00BF832144A8FFF7FDFE8021C0
:101BC0000DF21310FEF7E3FB05462812FFF700FAAB
:101BD000E8B2FFF7FDF942F2107102A8FFF788F9A9
:101BE00030B99DF80800062803D14FF0010800E045
:101BF000641CB8F1000F01D10A2CDCD30A2C01D3EC
:101C0000E0B236E700BF0420FFF7E2F942F21071BC
:101C100002A8FFF76DF930B99DF80800062802D137
:101C20004FF0010800E0641CB8F1000F01D10A2C4C
:101C3000E9D30A2C01D3E0B21BE7002019E700002A
:101C4000A0860100FEF7BEFDFEF734FFFEF7E8FEBA
:101C500010211B48FEF7B7FE012814D11948FFF7E1
:101C600025FB1948FFF722FB1848FFF71FFB164812
:101C7000FFF71CFB1348FFF719FB15A0FFF716FB36
:101C8000FEF72AFF1AE01448006814490840B0F132
:101C9000005F10D11048406811490860084600688C
:101CA000104908600C49086880F3088800BF0D4897
:101CB0000068804702E00CA0FFF7F8FA00BFFEE7DB
:101CC00000100140941D0008FC1C0008481D00087D
:101CD0000D0A0D0A00000000000001080000FE2FA0
:101CE0001C000020180000206E6F207573657220A4
:101CF00050726F6772616D0D0A0A00000D0A3D2077
:101D000020202020202020202020202020202020D3
:101D100020202020202020202020202020202020C3
:101D200020202020202020202020202020202020B3
:101D300020202020202020202020202020202020A3
:101D40002020203D000000000D0A3D202020202002
:101D5000496E2D4170706C69636174696F6E2050BB
:101D6000726F6772616D6D696E67204170706C692A
:101D7000636174696F6E20202856657273696F6E97
:101D800020312E302E302920202020202020203DE0
:101D9000000000000D0A3D3D3D3D3D3D3D3D3D3DCA
:101DA0003D3D3D3D3D3D3D3D3D3D3D3D3D3D3D3D63
:101DB0003D3D3D3D3D3D3D3D3D3D3D3D3D3D3D3D53
:101DC0003D3D3D3D3D3D3D3D3D3D3D3D3D3D3D3D43
:101DD0003D3D3D3D3D3D3D3D3D3D3D3D0000000027
:101DE0002E2E2E616E6420612053797374656D20F0
:101DF00052657365742077696C6C20626520676535
:101E00006E65726174656420746F2072652D6C6FED
:101E1000616420746865206E6577206F7074696FE7
:101E20006E2062797465730D0A0000000A0A0D20A5
:101E300050726F6772616D6D696E6720436F6D7070
:101E40006C65746564205375636365737366756C44
:101E50006C79210A0D2D2D2D2D2D2D2D2D2D2D2D76
:101E60002D2D2D2D2D2D2D2D2D2D2D2D2D2D2D2DA2
:101E70002D2D2D2D2D0D0A204E616D653A2000006F
:101E8000A01E000800000020400000006C010008B7
:101E9000E01E000840000020600B000088010008E0
:101EA0000000010800080000000000000000000021
:101EB000040000000000000000000000000000001E
:101EC0000000000000000000000000000000000012
:101ED00001020304010203040607080902040608BC
:0400000508000131BD
:00000001FF
